:100000000C9462000C948A000C948A000C948A0070
:100010000C948A000C948A000C948A000C948A0038
:100020000C948A000C948A000C948A000C948A0028
:100030000C948A000C948A000C948A000C948A0018
:100040000C94A1010C948A000C94D4020C948A00A4
:100050000C948A000C948A000C948A000C948A00F8
:100060000C948A000C948A000000000024002700F1
:100070002A0000000000250028002B0000000000DE
:1000800023002600290004040404040404040202DA
:100090000202020203030303030301020408102007
:1000A0004080010204081020010204081020000012
:1000B0000007000201000003040600000000000029
:1000C00000001D0411241FBECFEFD4E0DEBFCDBF62
:1000D00012E0A0E0B1E0E6E9FAE002C005900D927E
:1000E000A439B107D9F713E0A4E9B2E001C01D9229
:1000F000A833B107E1F710E0C4ECD0E004C02297C8
:10010000FE010E944505C23CD107C9F70E949A0131
:100110000C9449050C9400000F931F9305E213E023
:10012000C80140EC52E160E070E00E941103C80198
:1001300060E071E00E94B5048091440161E00E949A
:1001400067028091460161E00E9467028091480148
:1001500061E00E9467028091480161E00E9487028D
:100160008091440161E00E94870260ED77E080E0C9
:1001700090E00E94F5018091440160E00E948702B6
:100180001F910F91089568E070E080E090E00E9478
:10019000F5018AEA90E00E941F02089580914401CF
:1001A00061E00E9487028091460161E00E9487021F
:1001B0000E94C3008091440160E00E948702809108
:1001C000460160E00E9487020895CF93DF93C0E06C
:1001D000D0E00E94C3002196CE30D105D1F7DF9147
:1001E000CF9108950F931F93CF93DF93682F8032A1
:1001F00029F0EAE4F1E0C0E0D0E006C085E293E057
:1002000060E20E948E0451C080813B96861709F0FF
:100210004FC085E293E00E948E04109295021092E6
:1002200094028BE090E0C89F8001C99F100DD89F79
:10023000100D112434C0109297021092960220E8FB
:100240001FC0C22FD0E0EE0FFF1FE00FF11FE65BD3
:10025000FE4F818192818C239D23892B19F00E946E
:10026000CE0002C00E94C300D595C7952C2F809167
:10027000960290919702019690939702809396022E
:100280008091960290919702E0919402F0919502EC
:100290000697BCF23196F0939502E0939402809118
:1002A000940290919502059734F20E94E5000BC0EC
:1002B0002196CD31D10509F0A7CF85E293E06CE01E
:1002C00071E00E949604DF91CF911F910F910895E4
:1002D000CF93DF93EC0103C021960E94F200888146
:1002E0008823D1F785E293E06EE071E00E94B504C7
:1002F000DF91CF9108958FE091E00E94680168EE50
:1003000073E080E090E00E94F50183E391E00E94B9
:10031000680168EE73E080E090E00E94F50189E3F7
:1003200091E00E94680168EE73E080E090E00E9436
:10033000F50108950E942D020E948C000E947B010D
:10034000FDCF1F920F920FB60F9211242F933F9360
:100350004F935F936F937F938F939F93AF93BF93CD
:1003600020919C0230919D0240919E0250919F02EB
:100370007091A002DA01C9010296A11DB11D672F7B
:100380006A5F6D3730F06D57DA01C9010396A11D20
:10039000B11D6093A00280939C0290939D02A09354
:1003A0009E02B0939F028091980290919902A09131
:1003B0009A02B0919B020196A11DB11D80939802F3
:1003C00090939902A0939A02B0939B02BF91AF9130
:1003D0009F918F917F916F915F914F913F912F915D
:1003E0000F900FBE0F901F901895EF92FF920F93F2
:1003F0001F937B018C018FB7F89440919C02509120
:100400009D0260919E0270919F028FBF2FB7F8945A
:1004100080919C0290919D02A0919E02B0919F02BA
:100420002FBF841B950BA60BB70BE816F9060A071E
:100430001B0760F71F910F91FF90EF9008950197B0
:1004400059F0019749F0FC01EE0FFF1F31978FB76C
:10045000F8943197F1F78FBF0895789484B582604E
:1004600084BD84B5816084BD85B5826085BD85B558
:10047000816085BDEEE6F0E0808181608083E1E807
:10048000F0E0808182608083808181608083E0E809
:10049000F0E0808181608083E1EBF0E08081846026
:1004A0008083E0EBF0E0808181608083EAE7F0E028
:1004B000808184608083808182608083808181608C
:1004C00080838081806880831092C1000895282FE6
:1004D00030E0C90186569F4FFC0194912A573F4F47
:1004E000F9018491882391F0E82FF0E0EE0FFF1FCF
:1004F000E859FF4FA591B491662329F48C9190950A
:1005000089238C9308958C91892B8C930895482F7F
:1005100050E0CA0182559F4FFC012491CA018656C2
:100520009F4FFC0194914A575F4FFA013491332356
:10053000D1F1222331F1233021F4809180008F7793
:1005400005C0243031F4809180008F7D809380003D
:1005500018C0213019F484B58F7704C0223021F4FB
:1005600084B58F7D84BD0DC0263021F48091B0000C
:100570008F7705C0273029F48091B0008F7D80935C
:10058000B000E32FF0E0EE0FFF1FEE58FF4FA591F4
:10059000B491662329F48C91909589238C930895C6
:1005A0008C91892B8C9308951F920F920FB60F9206
:1005B00011242F933F934F935F936F937F938F9368
:1005C0009F93AF93BF93EF93FF934091C600E09149
:1005D0002103F0912203CF01019660E870E00E94B0
:1005E000DF049C018091230390912403281739078D
:1005F00039F0EF55FD4F40833093220320932103C0
:10060000FF91EF91BF91AF919F918F917F916F91EA
:100610005F914F913F912F910F900FBE0F901F90C0
:1006200018955F926F927F928F929F92AF92BF9236
:10063000CF92DF92EF92FF920F931F93CF93DF93AE
:10064000EC013A014B01413281EA580787E0680723
:1006500080E078070CF07FC060E472E48FE090E007
:10066000A40193010E9414052150304040405040A5
:10067000CA01B90122E030E040E050E00E941405D8
:1006800059016A01A6019501209530954095509534
:1006900094E0220F331F441F551F9A95D1F760E055
:1006A00072E18AE790E00E941405CA01B9012FEFB8
:1006B00030E040E050E00E94C004A40193010E9499
:1006C0001405C90181509F4F181619061CF4522EAB
:1006D0005A9403C055245394521A60E874E88EE18A
:1006E00090E0A40193010E94140521503040404045
:1006F0005040CA01B90122E030E040E050E00E94E1
:100700001405209530954095509583E0220F331FB6
:10071000441F551F8A95D1F760E072E18AE790E0A7
:100720000E941405CA01B9012FEF30E040E050E00B
:100730000E94C004A40193010E941405C9018150C4
:100740009F4F181619061CF4822F815002C081E0B9
:10075000821B851500F5E885F98581E090E00A881F
:1007600002C0880F991F0A94E2F7808360E874E85A
:100770008EE190E0A40193010E94140521503040C5
:1007800040405040CA01B90122E030E040E050E072
:100790000E94140504C0E885F98510829501EC815A
:1007A000FD813083EE81FF812083EA85FB852081F6
:1007B00041E050E0CA010E8402C0880F991F0A94DC
:1007C000E2F7282B2083EA85FB852081CA010F846C
:1007D00002C0880F991F0A94E2F7282B2083EA852C
:1007E000FB858081088802C0440F551F0A94E2F7F8
:1007F000842B8083DF91CF911F910F91FF90EF9019
:10080000DF90CF90BF90AF909F908F907F906F9030
:100810005F900895FC01A085B18521898C9190E0BD
:10082000022E02C0959587950A94E2F780FFF6CFD5
:100830000484F585E02D608308958DE892E090931F
:1008400026038093250381EA92E090932803809306
:10085000270385EC90E090932A038093290384EC8E
:1008600090E090932C0380932B0380EC90E0909386
:100870002E0380932D0381EC90E0909330038093BE
:100880002F0386EC90E0909332038093310384E051
:100890008093330383E08093340387E080933503B0
:1008A00085E08093360381E08093370308950F93AA
:1008B0001F93CF93DF938C01EB0109C02196D801E0
:1008C000ED91FC910190F081E02DC80109956881BE
:1008D0006623A1F7DF91CF911F910F910895EF92B9
:1008E000FF920F931F93CF93DF938C017B01EA015B
:1008F0000CC0D7016D917D01D801ED91FC91019063
:10090000F081E02DC80109952197209791F7DF919B
:10091000CF911F910F91FF90EF900895DC01ED9121
:10092000FC910190F081E02D09950895DC01ED9195
:10093000FC910280F381E02D099508950F931F9398
:100940008C01DC01ED91FC910190F081E02D6DE0D6
:100950000995D801ED91FC910190F081E02DC8013D
:100960006AE009951F910F9108950F931F938C01D1
:100970000E949604C8010E949E041F910F91089541
:10098000629FD001739FF001829FE00DF11D649F73
:10099000E00DF11D929FF00D839FF00D749FF00DFF
:1009A000659FF00D9927729FB00DE11DF91F639FA0
:1009B000B00DE11DF91FBD01CF011124089597FB72
:1009C000092E07260AD077FD04D049D006D0002092
:1009D0001AF4709561957F4F0895F6F7909581957B
:1009E0009F4F0895A1E21A2EAA1BBB1BFD010DC04B
:1009F000AA1FBB1FEE1FFF1FA217B307E407F507CF
:100A000020F0A21BB30BE40BF50B661F771F881FAA
:100A1000991F1A9469F760957095809590959B0140
:100A2000AC01BD01CF01089597FB092E05260ED01C
:100A300057FD04D0D7DF0AD0001C38F450954095FC
:100A4000309521953F4F4F4F5F4F0895F6F79095A2
:100A50008095709561957F4F8F4F9F4F0895AA1B8A
:100A6000BB1B51E107C0AA1FBB1FA617B70710F099
:100A7000A61BB70B881F991F5A95A9F780959095CB
:100A8000BC01CD010895EE0FFF1F0590F491E02DFC
:060A90000994F894FFCF69
:100A96005374617274696E672E2E2E003F000056E5
:100AA600565656562C41544C41532C312C484947E6
:100AB600482C414C5449545544452C42414C4C4FCA
:100AC6004F4E004D364A43580030393837363534A4
:100AD6003332310007000300040031040004007CB7
:100AE6000000000000324800640054004C00400042
:100AF6003344004400540054003C00341C001000F1
:100B060010007C0010003540005C00540054003496
:100B160000363C0052004A004800300037440024AA
:100B26000014000C000400386C005A0054005A00EF
:100B36006C003908004A004A002A003800303800A4
:100B4600640054004C0038004178002C0024002C2E
:100B56000078004244007C005400540028004338CA
:100B6600006C004400440028004444007C0044001B
:100B760044003800457C00540054004400440047BB
:100B860038006C00440054003400487C001000100B
:100B96000010007C0049000044007C004400000076
:100BA6004A60004000400040007C004C7C00400051
:100BB6004000400040004D7C000800100008007C0A
:100BC600004E7C000400080010007C004F380044F2
:100BD60000440044003800535800540054005400A8
:100BE600240054040004007C0004000400557C002A
:100BF6004000400040007C00567C002000100008A9
:100C060000040058440028001000280044002C80EE
:100C160000A000600000000000000000000A045769
:040C2600046F040053
:00000001FF
