:100000000C9463000C94B8130C94E5130C948B00BF
:100010000C948B000C948B000C948B000C948B0034
:100020000C948B000C948B000C948B000C948B0024
:100030000C948B000C948B000C948B000C948B0014
:100040000C9412140C948B000C94C0150C948B001F
:100050000C948B000C948B000C948B000C948B00F4
:100060000C948B000C948B000000000024002700EF
:100070002A0000000000250028002B0000000000DE
:1000800023002600290004040404040404040202DA
:100090000202020203030303030301020408102007
:1000A0004080010204081020010204081020000012
:1000B0000007000201000003040600000000000029
:1000C0000000940A451711241FBECFEFD8E0DEBF11
:1000D000CDBF12E0A0E0B1E0ECE0F7E302C0059094
:1000E0000D92A43CB107D9F714E0A4ECB2E001C032
:1000F0001D92A53EB107E1F710E0C6ECD0E004C0C8
:100100002297FE010E94491BC23CD107C9F70E94F9
:100110007B130C94841B0C940000FB01DC010D90FC
:100120000020E9F7119701900D920020E1F7089562
:10013000FB01DC0101900D920020E1F70895FB0125
:100140009F01E8944230C4F04532B4F44A3029F4B7
:1001500097FB1EF4909581959F4F642F77270E94FF
:10016000331B805D8A330CF0895D8193CB0100974E
:10017000A1F716F45DE251931082C9010C94D702E5
:10018000AEE0B0E0E6ECF0E00C945B1B0D891E895C
:1001900086E08C831A8309838FEF9FE79E838D838C
:1001A0009E01275E3F4FCE0101966F89788DA90190
:1001B0000E94E4002F813885020F131FF80110827E
:1001C0002E96E4E00C94771BABE0B0E0EAEEF0E0B2
:1001D0000C944D1B3C012B015A01FC011782168225
:1001E000838181FD03C06FEF7FEFC6C19AE0892E46
:1001F0001E010894211C311CF3012381F20123FD0F
:10020000859123FF81912F01882309F4B2C18532A2
:1002100039F423FD859123FF81912F01853229F443
:1002200090E0B3010E94E702E7CF982FFF24EE246D
:100230009924FFE1FF15D0F09B3269F09C3228F43D
:10024000903259F0933291F40EC09D3249F09033C0
:1002500069F441E024C052E0F52A84E0F82A28C07D
:1002600098E0F92A25C0E0E1FE2A22C0F7FC29C067
:10027000892F80538A3070F4F6FE05C0989C902C2C
:100280001124980E15C0E89CE02C1124E80EF0E231
:10029000FF2A0EC09E3229F4F6FC6BC140E4F42A1A
:1002A00007C09C3619F450E8F52A02C0983649F484
:1002B000F20123FD959123FF91912F01992309F0DC
:1002C000B8CF892F8554833018F08052833038F4AA
:1002D00044E050E0A40EB51E5FE359830FC093368F
:1002E00031F0933779F0933509F056C020C0F5010D
:1002F0008081898342E050E0A40EB51E610101E0D7
:1003000010E012C0F501C080D180F6FC03C06FEF91
:100310007FEF02C0692D70E042E050E0A40EB51EF0
:10032000C6010E94CC028C015FE7F52214C0F501E2
:10033000C080D180F6FC03C06FEF7FEF02C0692D53
:1003400070E042E050E0A40EB51EC6010E94C1025A
:100350008C0150E8F52AF3FE07C01AC080E290E055
:10036000B3010E94E702EA948E2D90E00817190766
:10037000A8F30EC0F601F7FC8591F7FE81916F019D
:1003800090E0B3010E94E702E110EA9401501040AE
:100390000115110579F7EAC0943611F0993669F51F
:1003A000F7FE08C0F501208131814281538184E04C
:1003B00090E00AC0F501808191819C01442737FDBE
:1003C0004095542F82E090E0A80EB91E9FE6F922D6
:1003D00057FF09C050954095309521953F4F4F4F9D
:1003E0005F4FE0E8FE2ACA01B901A1012AE030E02E
:1003F0000E941303D82ED21840C0953729F41F2D20
:100400001F7E2AE030E01DC01F2D197F9F3661F04E
:10041000903720F4983509F0ACC00FC0903739F010
:10042000983709F0A6C004C028E030E00AC0106187
:1004300014FD146020E130E004C014FD166020E1DA
:1004400032E017FF08C0F5016081718182819381DC
:1004500044E050E008C0F50180819181BC0180E05A
:1004600090E042E050E0A40EB51EA1010E941303EB
:10047000D82ED2188FE7F82EF122F6FE0BC05EEFD1
:10048000F522D91438F4F4FE07C0F2FC05C08FEE53
:10049000F82202C01D2D01C0192DF4FE0DC0FE0171
:1004A000ED0DF11D8081803319F499EEF92208C019
:1004B0001F5FF2FE05C003C08F2D867809F01F5F15
:1004C0000F2DF3FC14C0F0FE0FC01E1510F09D2C74
:1004D0000BC09D2C9E0C911A1E2D06C080E290E050
:1004E000B3010E94E7021F5F1E15C0F304C01E1572
:1004F00010F4E11A01C0EE2404FF0FC080E390E085
:10050000B3010E94E70202FF1DC001FD03C088E79E
:1005100090E00EC088E590E00BC0802F867891F0C7
:1005200001FF02C08BE201C080E2F7FC8DE290E0A7
:10053000B3010E94E70206C080E390E0B3010E948D
:10054000E7029A94D914C0F3DA94F101ED0DF11D8C
:10055000808190E0B3010E94E702DD20A9F706C088
:1005600080E290E0B3010E94E702EA94EE20C1F736
:1005700043CEF30166817781CB012B96E2E10C94A7
:10058000691BFC010590615070400110D8F78095FF
:1005900090958E0F9F1F0895FC016150704001904F
:1005A0000110D8F7809590958E0F9F1F0895DC015C
:1005B000FC01672F71917723E1F7329704C07C919A
:1005C0006D9370836291AE17BF07C8F308950F93C0
:1005D0001F93CF93DF938C01EB018B8181FF1BC0B5
:1005E00082FF0DC02E813F818C819D8128173907A4
:1005F00064F4E881F9810193F983E88306C0E88512
:10060000F985802F0995892B31F48E819F81019680
:100610009F838E8302C00FEF1FEFC801DF91CF9140
:100620001F910F910895FA01AA27283051F1203126
:1006300081F1E8946F936E7F6E5F7F4F8F4F9F4F76
:10064000AF4FB1E03ED0B4E03CD0670F781F891FB8
:100650009A1FA11D680F791F8A1F911DA11D6A0F86
:10066000711D811D911DA11D20D009F468943F9139
:100670002AE0269F11243019305D3193DEF6CF0138
:100680000895462F4770405D4193B3E00FD0C9F7FE
:10069000F6CF462F4F70405D4A3318F0495D31FD6B
:1006A0004052419302D0A9F7EACFB4E0A6959795BE
:1006B000879577956795BA95C9F700976105710594
:1006C00008959B01AC010A2E0694579547953795DE
:1006D0002795BA95C9F7620F731F841F951FA01D38
:1006E0000895FC012FEF3FEF4FEF5FEF2083318341
:1006F0004283538310861186128613868FEF99ECFE
:10070000AAE9BBE3808B918BA28BB38B808F918FF7
:10071000A28FB38F80A391A3A2A3B3A380A791A715
:10072000A2A7B3A780AB91ABA2ABB3AB20AF31AF65
:1007300042AF53AFE05CFF4F20833183428353834A
:10074000389683E690E0A0E0B0E081939193A19386
:10075000B19311921082709682E08193119211925E
:100760001192119211921192119211921192118281
:100770001082799710820895EF92FF920F931F9342
:10078000CF93DF939C01EE24FC01E25BFF4F80815D
:100790008D3231F4EE24E394E901C15BDF4F01C0F7
:1007A000EF018E0120E030E040E050E018C0CA01C7
:1007B000B9012AE030E040E050E00E94C41A2F2D39
:1007C000332727FD3095432F532F2053304040408F
:1007D0005040260F371F481F591F0F5F1F4FF8014A
:1007E000F0808F2D80538A3010F3CA01B90124E6BE
:1007F00030E040E050E00E94C41A9B01AC0101C00F
:1008000021969881892F80538A30D0F39E3229F522
:100810009981892F80538A3000F58AE09802C001BF
:100820001124805E9140AA2797FDA095BA2F280F2A
:10083000391F4A1F5B1F9A81892F80538A3068F4C1
:10084000892F992787FD9095C097AA2797FDA09596
:10085000BA2F280F391F4A1F5B1FEE2039F0509521
:100860004095309521953F4F4F4F5F4FB901CA01D9
:10087000DF91CF911F910F91FF90EF9008954F92CC
:100880005F926F927F928F929F92AF92BF92CF9220
:10089000DF92EF92FF920F931F93CF93DF932EE49B
:1008A000822E912C880E991EE40120E030E040E079
:1008B00050E017C0CA01B9012AE030E040E050E042
:1008C0000E94C41A212F332727FD3095432F532F21
:1008D0002053304040405040260F371F481F591FBB
:1008E00021961881812F80538A3020F3722E632E37
:1008F000542E452EB901CA0124E630E040E050E014
:100900000E94F61A20E137E240E050E00E94C41A4B
:100910005B016C0103C00894811C911CF40190815F
:10092000892F80538A30B8F39E3269F588EEE82E1D
:1009300083E0F82E012D112D1DC0332727FD3095A2
:1009400020533040442737FD4095542FC801B7014C
:100950000E94C41AA60EB71EC81ED91EC801B70130
:100960002AE030E040E050E00E94F61AC901DA01C6
:100970007C018D010894811C911CF4012081822F3F
:1009800080538A30D0F2C601B50126E030E040E065
:1009900050E00E94F61A79018A01672D762D852D87
:1009A000942D24E630E040E050E00E94F61ACA019F
:1009B000B90120EA36E841E050E00E94C41AE60E90
:1009C000F71E081F191FB701C801DF91CF911F91B2
:1009D0000F91FF90EF90DF90CF90BF90AF909F90DE
:1009E0008F907F906F905F904F900895FF920F933C
:1009F0001F93CF93DF93EC01C35BDF4F8881CD540E
:100A0000D040882309F49BC0C25BDF4F9881CE544D
:100A1000D040892F8154863038F4292F332727FD81
:100A20003095275330400CC0292F332727FD3095B0
:100A30009156963018F42755304002C0205330406C
:100A4000C15BDF4F4881CF54D040842F8154863022
:100A500030F4842F992787FD9095C7970BC0842F7A
:100A6000992787FD90954156463018F48755904058
:100A700001C0C09744E0220F331F4A95E1F7982F39
:100A8000920FC45BDF4F8881CC54D040981709F097
:100A90004DC0C05ADF4F8881C056D040882309F42A
:100AA0009CC1FE01EB59FF4F80819181019691839A
:100AB00080838CAD9DADAEADBFAD88AF99AFAAAF11
:100AC000BBAFFE01E05CFF4FCC5BDF4F88819981BB
:100AD000AA81BB8180839183A283B3836996888135
:100AE000CD55D040882301F58CA19DA1AEA1BFA119
:100AF00088A399A3AAA3BBA38C819D81AE81BF814A
:100B000088839983AA83BB838C899D89AE89BF8999
:100B1000888B998BAA8BBB8B8C8D9D8DAE8DBF8D59
:100B2000888F998FAA8FBB8F81E058C1FE01E95948
:100B3000FF4F808191810196918380834EC1C25A7B
:100B4000DF4F3881CE55D040332399F4DE01A25BCC
:100B5000BF4FE0E0F1E002C0119631969C919923DD
:100B600021F080819817C1F33FC1C35ADF4F18822B
:100B700034C1C35ADF4F8881CD55D040823009F44B
:100B80002CC1C25BDF4F2881CE54D040222309F410
:100B900024C1882319F084E690E002C088EC90E03C
:100BA000830F911D8D36910509F4AFC08E369105E6
:100BB0002CF58836910509F46AC0893691056CF4E4
:100BC0008636910509F44BC0873691050CF04FC06D
:100BD0008536910509F001C134C08A36910509F4C2
:100BE00071C08A3691050CF465C08B36910509F405
:100BF0007CC08C36910509F0F0C07FC08C3C91051B
:100C000009F458C08D3C91055CF48A3C910579F15A
:100C10008B3C9105E4F5893C910509F0DEC011C0DB
:100C20008E3C910509F49CC08E3C91050CF44AC0A1
:100C30008F3C910509F49DC0813D910509F0CDC01F
:100C4000C5C0CE010E94BC036C837D838E839F83CD
:100C50000E9466146CAF7DAF8EAF9FAFBEC0FE0129
:100C6000E05AFF4F1082213409F0B7C07FC0CE0197
:100C70000E943F046C8B7D8B8E8B9F8B0E94661431
:100C8000CC5BDF4F688379838A839B83A6C023353F
:100C900009F0A3C08C899D89AE89BF89B095A095C4
:100CA000909581959F4FAF4FBF4F8C8B9D8BAE8B97
:100CB000BF8B93C0CE010E943F046C8F7D8F8E8FBF
:100CC0009F8F8BC0273509F088C08C8D9D8DAE8D90
:100CD000BF8DB095A095909581959F4FAF4FBF4F19
:100CE0008C8F9D8FAE8FBF8F78C0CE010E94BC03CA
:100CF0006CA77DA78EA79FA770C0CE010E94BC03E2
:100D00006CAB7DAB8EAB9FAB68C08E01025B1F4F9F
:100D100020E030E040E050E018C0CA01B9012AE00C
:100D200030E040E050E00E94C41A2F2D332727FD09
:100D30003095432F532F2053304040405040260FD2
:100D4000371F481F591F0F5F1F4FF801F0808F2D6D
:100D500080538A3010F32C873D874E875F873DC0D4
:100D6000FE01E05AFF4F10822133BCF181E0808305
:100D700034C08E01025B1F4F20E030E040E050E0C5
:100D800018C0CA01B9012AE030E040E050E00E94FA
:100D9000C41A2F2D332727FD3095432F532F20536F
:100DA000304040405040260F371F481F591F0F5FEB
:100DB0001F4FF801F0808F2D80538A3010F3C85BED
:100DC000DF4F288339834A835B8307C0CE010E94AB
:100DD000BC036CA37DA38EA39FA380E0DF91CF9182
:100DE0001F910F91FF900895C35ADF4F82E08883CF
:100DF000F4CF1F93CF93DF93EC01162FFC01EF5933
:100E0000FF4F80819181A281B3810196A11DB11D07
:100E100080839183A283B3836432A1F1DE01A15A5E
:100E2000BF4F65322CF46A3069F06D30C9F50AC0E5
:100E30006A3241F06C32A1F5FE01E45BFF4F808124
:100E4000862780838C918F3010F090E00AC0FE01DD
:100E5000E80FF11DE25BFF4F1082CE010E94F60405
:100E6000982FFE01E25AFF4F80818F5F8083C15A25
:100E7000DF4F1882FE01729710821A3251F581E01D
:100E8000808327C0C15ADF4F18821A926297188256
:100E9000619682E08883609718826396188218C0F2
:100EA0008C918E3040F4FE01E80FF11DE25BFF4FA4
:100EB00010838F5F8C93C35BDF4F8881CD54D0400C
:100EC000882331F4FE01E45BFF4F8081812780831A
:100ED00090E0892FDF91CF911F910895DC011A9640
:100EE0006C931A97462F50E0CA018A579F4FFC0116
:100EF00024911B962C931B9746565F4FFA018491C1
:100F00001C968C931C9730E0220F331FF901EE588A
:100F1000FF4F859194911E969C938E931D97F90196
:100F2000E458FF4F8591949150969C938E931F9710
:100F3000F901E859FF4F8591949152969C938E93B5
:100F400051978FEF18968C93189719961C921997B2
:100F500087E0FD01E80FF11D1082882311F0815018
:100F6000F8CF0895FF920F931F938C01DC015196E7
:100F7000ED91FC91529780811C969C911C97892B36
:100F800080831D96ED91FC911E9790811C968C910B
:100F900080958923808381E090E00E949E14D8018F
:100FA0005196ED91FC91529790811C968C91809571
:100FB0008923808385E090E00E949E14D8011F96CB
:100FC000ED91FC9150972081FF2430E01C968C918C
:100FD00090E028233923232B11F0FF24F39482E39C
:100FE00090E00E949E148F2D1F910F91FF90089505
:100FF000EF92FF920F931F93CF93DF937C0101E059
:1010000010E0C0E0D0E0C7010E94B2078111102BB0
:10101000000F2196C830D105B1F7812FDF91CF9114
:101020001F910F91FF90EF900895EF92FF920F9311
:101030001F937C01062FDC015196ED91FC91529794
:1010400080811C969C911C97892B80831D96ED9125
:10105000FC911E9790811C968C91809589238083AA
:10106000017010E0F801E557FD4F808190E00E948B
:101070009E14D7011D96ED91FC911E9780811C96C0
:101080009C91892B808307571D4FF801808190E048
:101090000E949E141F910F91FF90EF900895CF92A0
:1010A000DF92EF92FF920F931F93CF93DF938C0108
:1010B000E42EFF24F394C0E0D0E0C62EDD2460E0EF
:1010C0008F2D90E08C219D21892B09F061E0C801D2
:1010D0000E941508FF0C2196C830D10581F7EE203B
:1010E00051F4F801828560E00E940415F8018285C0
:1010F00060E00E942415DF91CF911F910F91FF9026
:10110000EF90DF90CF900895EF92FF920F931F938F
:10111000CF93DF938C017B0165E540E00E944F088F
:10112000C0E0D0E0F701EC0FFD1FC801608140E096
:101130000E944F082196C830D105A1F7DF91CF91C9
:101140001F910F91FF90EF9008951F93CF93DF931E
:10115000EC018A8560E00E9404151DE7115010F42F
:1011600010E028C082E090E00E949E148A850E94D0
:101170007115892B99F38A8560E00E9424158A8570
:1011800061E00E94041584EF91E00E949E148A851C
:1011900060E00E94041581E490E00E949E148A851C
:1011A0000E94711510E0892B09F411E08AEE91E09C
:1011B0000E949E14812FDF91CF911F9108956F920D
:1011C0007F928F929F92AF92BF92CF92DF92EF92D7
:1011D000FF920F931F93CF93DF93609192037091CF
:1011E0009303809194039091950361157105810596
:1011F0009105C9F56091620370916303882777FDBB
:101200008095982F20E13EE040E050E00E94C41A13
:1012100040916403509165032CE330E0F9014E9F47
:1012200090014F9F300D5E9F300D1124442737FDF4
:101230004095542F260F371F481F591F8091660372
:1012400090916703AA2797FDA095BA2F820F931F4D
:10125000A41FB51F8093920390939303A0939403CC
:10126000B093950368C0A0908E03B0908F03C09098
:101270009003D09091036A157B058C059D05F4F5CC
:10128000E501C61BD70B60906E0270906F028090D4
:101290007002909071028091AA039091AB03CD33BC
:1012A000D10564F1B301681B790B882777FD809520
:1012B000982F0E94AD197B018C01BE01882777FD14
:1012C0008095982F0E94AD199B01AC01C801B70110
:1012D0000E9412196093A2037093A3038093A40346
:1012E0009093A503A0929203B0929303C0929403AB
:1012F000D09295037092AB036092AA0380919203FF
:1013000090919303A0919403B0919503A816B90608
:10131000CA06DB0684F4A0929203B0929303C092B3
:101320009403D092950380916E0290916F029093F6
:10133000AB038093AA03DF91CF911F910F91FF9090
:10134000EF90DF90CF90BF90AF909F908F907F9065
:101350006F900895EF92FF920F931F93E090A20376
:10136000F090A3030091A4031091A503C801B70155
:1013700020E030E040E85FE30E940E1988230CF083
:1013800077C0C801B70120E030E040E85FEB0E9481
:101390005D1A18160CF06CC080916E0290916F026D
:1013A000A0917002B091710289599A43A040B04057
:1013B0000CF45EC020918E0330918F034091900316
:1013C00050919103E0909603F09097030091980359
:1013D000109199032E153F054007510794F1809114
:1013E0009A0390919B03A0919C03B0919D03009759
:1013F000A105B105D9F42093960330939703409348
:101400009803509399038AE090E09093A903809306
:10141000A80381E090E0A0E0B0E080939A0390936D
:101420009B03A0939C03B0939D036FC08AE090E060
:101430009093A9038093A8032E193F09400B510BE9
:1014400037C08AE090E09093A9038093A80380912D
:101450009A0390919B039093A7038093A6032093F4
:1014600096033093970340939803509399034DC08C
:101470008091A8039091A90318161906B4F5019755
:101480009093A9038093A80320918E0330918F033A
:10149000409190035091910380919603909197030E
:1014A000A0919803B0919903281B390B4A0B5B0B51
:1014B00020939A0330939B0340939C0350939D0386
:1014C0008091A6039091A703AA2797FDA095BA2F14
:1014D000820F931FA41FB51F80939E0390939F03B9
:1014E000A093A003B093A10310C010929A0310928E
:1014F0009B0310929C0310929D0310929E031092E6
:101500009F031092A0031092A1031F910F91FF90CF
:10151000EF9008958091B6039091B7030196909350
:10152000B7038093B603089584EC92E00E947103A0
:101530008FE293E069E00E946E070895EF92FF92B8
:101540000F931F93CF93DF938C01C0E0D0E0E62E82
:10155000FF2418C0F801408150E060E070E082EDA7
:1015600094E020E030E00E949418F80141918F014E
:1015700050E060E070E082ED94E020E130E00E9415
:1015800094182196CE15DF052CF382ED94E00E948D
:10159000BE17DF91CF911F910F91FF90EF900895AB
:1015A000DF93CF93CDB7DEB7AC970FB6F894DEBF1D
:1015B0000FBECDBF8091640261E00E94041580914E
:1015C000660261E00E9404158091680261E00E9459
:1015D000041580916A0261E00E94041580916C02FA
:1015E00061E00E94041582ED94E040E855E260E07D
:1015F00070E00E94FD1582ED94E066E071E00E94CB
:10160000B61782ED94E060E271E00E94B61782EDB9
:1016100094E06AE371E00E94B61782ED94E064E51D
:1016200071E00E94B61782ED94E06EE671E00E94D0
:10163000B617DE011196EDE8F2E08CE201900D9212
:101640008150E1F7CE0101966CE20E949E0A8091E2
:101650006A0261E00E9424158091640261E00E94A8
:10166000241580916C0261E00E94241560ED77E002
:1016700080E090E00E94741480916C0260E00E940F
:10168000241580916A0260E00E942415AC960FB682
:10169000F894DEBF0FBECDBFCF91DF91089585E0F6
:1016A0000E94E6146AE070E00E94E31A7093B303AC
:1016B0006093B203089580916C0260E00E9424154B
:1016C00080E00E94A5131092B5031092B40310920B
:1016D0009E0310929F031092A0031092A1031092F8
:1016E0009A0310929B0310929C0310929D031092F8
:1016F000B9031092B8031092AD031092AC03089591
:1017000080E06AE87AE043E050E00E948213809132
:101710006C0261E00E9424150895CF92DF92EF924F
:10172000FF920F931F93DF93CF93CDB7DEB72C9724
:101730000FB6F894DEBF0FBECDBF7C018FE293E001
:101740000E94A5088FE293E0B7010E9484088FE20F
:1017500093E064E441E00E944F0868EE73E080E0AB
:1017600090E00E9474148FE293E00E94A5088FE23B
:1017700093E0B7010E9484088FE293E06EEB40E0B3
:101780000E944F088E010F5F1F4F5AE0C52ED12CCB
:10179000CC0EDD1E8FE293E00E94F807D8018D93F6
:1017A0008D01AC15BD05B1F79A8180E02981FC015E
:1017B000E20FF11D9F01E070F078309719F030953D
:1017C00021953F4FD7018C91803151F482E390E015
:1017D000289FB001299F700D389F700D11240EC0F5
:1017E000C90164E070E00E94E31AC901880F991FE3
:1017F000820F931F880F991F680F791FCB0164E632
:1018000070E00E94E31A9B01EF2B19F030952195AF
:101810003F4FC9012C960FB6F894DEBF0FBECDBF67
:10182000CF91DF911F910F91FF90EF90DF90CF90BC
:101830000895CF93DF93EC01DC010D900020E9F7D0
:101840001197A81BB90B20E030E060E070E00DC0FC
:10185000FE01E20FF31F8081482F50E04432510512
:1018600011F0642775272F5F3F4F2A173B0780F33E
:10187000CB01DF91CF9108953F924F925F926F928B
:101880007F928F929F92AF92BF92CF92DF92EF9210
:10189000FF920F931F93DF93CF93CDB7DEB760977F
:1018A0000FB6F894DEBF0FBECDBF3C015A016B01ED
:1018B000822E302E99240F2EF0E0EF2EF0E0FF2E36
:1018C000F0E00F2FFFE31F2FF02D0BC0C801B70171
:1018D00020E030E040E251E40E9412197B018C01CB
:1018E0009394981498F31982F3011082C601B501FC
:1018F00020E030E040E050E00E940E1988234CF4D4
:10190000C30168E871E00E949800D7FAD094D7F834
:10191000D094C601B501A80197010E94AA187B01C5
:101920008C010E947A19DC01CB012C01BE016F5F92
:101930007F4F4AE050E00E949F00BC01C3010E941B
:101940008D00882009F478C0C3016BE871E00E9423
:101950008D00982C61E0A62EB12CC12CD12CC60193
:10196000B5012AE030E040E050E00E94C41A5B017B
:101970006C019A94A1F7C801B70120E030E040E083
:1019800050E00E945D1A9201442737FD4095542F84
:1019900088234CF0CA01B9010E94AD199B01AC012A
:1019A000C801B70106C0CA01B9010E94AD19A8015A
:1019B00097010E94A9187B018C01C601B5010E9404
:1019C000AB199B01AC01C801B7010E94611A0E94CA
:1019D0007F19F62E072F182D11502F2D372F482F36
:1019E000592FC901DA01BC01CD0101C011502AE013
:1019F00030E040E050E00E94F61AC901DA01BC0173
:101A0000CD01611571058105910581F706C0C301FE
:101A10006EE871E00E948D0011501123C1F78F2DE7
:101A2000902FBE016F5F7F4F4AE050E00E949F0001
:101A3000BC01C3010E948D00332041F1D3010D9000
:101A40000020E9F71197A619B709832D90E08A17AE
:101A50009B07E0F0932D9A1B9E012F5F3F4FF901EA
:101A600040E201C041938E2F821B8917D8F38E016B
:101A70000F5F1F4FF801E90FF11D1082C801B3017C
:101A80000E948D00C301B8010E949800C3016096B6
:101A90000FB6F894DEBF0FBECDBFCF91DF911F917F
:101AA0000F91FF90EF90DF90CF90BF90AF909F90FD
:101AB0008F907F906F905F904F903F900895892B0B
:101AC00071F08091680261E00E94241580916602A5
:101AD00060E00E94241580916A0260E00DC0809150
:101AE000660261E00E9424158091680260E00E9415
:101AF000241580916A0261E00E94241586EB9EE421
:101B00000E949E140895FF920F931F93CF93DF932B
:101B1000F82E80E090E00E945F0D00E010E0CF2DF5
:101B2000DD27C7FDD095C0FF03C081E090E002C073
:101B300080E090E00E945F0D0F5F1F4F083011059D
:101B400021F0D595C795FC2EEACF81E090E00E9468
:101B50005F0DDF91CF911F910F91FF900895CF936B
:101B6000DF93FC018081EF0103C00E94830D888117
:101B700021968823D1F7DF91CF9108952F923F923C
:101B80004F925F926F927F928F929F92AF92BF928D
:101B9000CF92DF92EF92FF920F931F93CF93DF9339
:101BA000E2EC2E2EE3E03E2E89C382ED94E00E940B
:101BB0000A17682F84EC92E00E94F906882309F442
:101BC0007DC38091520390915303A0915403B0912F
:101BD00055038F5F9F4FAF4FBF4F09F46FC3809185
:101BE000CC029091CD02A091CE02B091CF02809311
:101BF000560390935703A0935803B09359038091D1
:101C0000C4029091C502A091C602B091C702809310
:101C10005A0390935B03A0935C03B0935D038091A0
:101C2000FC029091FD02A091FE02B091FF028F5F35
:101C30009F4FAF4FBF4F29F42FEF3FEF4FEF5FEFB5
:101C400010C00E9466149B01AC018091FC0290912F
:101C5000FD02A091FE02B091FF02281B390B4A0B36
:101C60005B0B20935E0330935F03409360035093BC
:101C70006103E0905A03F0905B0300915C031091C4
:101C80005D03C801B70120E432E44FE050E00E9458
:101C9000F61A39014A0130936303209362038824C2
:101CA00077FC8094982CC401B30120EC3DEB40EF0D
:101CB0005FEF0E94C41A5B016C01E60EF71E081F5D
:101CC000191FC801B70120E137E240E050E00E944F
:101CD000F61A2901309365032093640380915A0317
:101CE00090915B038A0D9B1D40EF58ED449E90013F
:101CF000459E300D549E300D1124820F931F64E6D3
:101D000070E00E94E31A5B017093670360936603BF
:101D1000E090DC02F090DD020091DE021091DF0223
:101D20006091D4027091D5028091D6029091D70231
:101D30000E94AD1920E030E543EC57E40E941219EF
:101D4000609346037093470380934803909349033D
:101D5000C801B7010E94AD1920E030E543EC57E41B
:101D60000E94121960934A0370934B0380934C03B3
:101D700090934D036091E4027091E5028091E60238
:101D80009091E7020E94AD1920E030E048EC52E467
:101D90000E94121960934E0370934F038093500377
:101DA000909351030E947A1960936E0270936F02B0
:101DB00080937002909371021092BD031092BC0345
:101DC0008CE390E0489E7001499EF00C589EF00C08
:101DD00011240027F7FC0095102FC401B30120E166
:101DE0003EE040E050E00E94C41AE60EF71E081FD5
:101DF000191FCC24B7FCC094DC2CEA0CFB1C0C1D76
:101E00001D1DE0928E03F0928F03009390031093B8
:101E100091030E94DF080E94AA098091B403909167
:101E2000B503892BE1F480919E0390919F03A091CB
:101E3000A003B091A10389559240A040B0407CF02E
:101E400080918402909185021816190644F441E0AD
:101E500050E05093B5034093B4030E94800B8091EF
:101E6000B4039091B503892B91F56091A203709111
:101E7000A3038091A4039091A50320E030E040EA01
:101E800050EC0E940E19882314F5809184029091E1
:101E9000850218161906DCF4809172029091730283
:101EA000823091057CF48AE090E0909373028093F5
:101EB0007202A2E0B0E0B093B503A093B4030E9415
:101EC000800B05C0019790937302809372028091FA
:101ED000B4039091B503892B21F56091460370916D
:101EE0004703809148039091490320E030E048E4A3
:101EF00052E40E940E198823A4F48091BA039091B1
:101F0000BB03892B71F423E030E03093B5032093B9
:101F1000B40341E050E05093BB034093BA030E94E6
:101F2000800B8091B4039091B503892B09F03BC0DD
:101F300080916E0290916F02A0917002B091710237
:101F4000853F51E0950750E0A50750E0B5075CF1EB
:101F500088589341A040B04034F56091A20370913D
:101F6000A3038091A4039091A50320E030E040EC0E
:101F70005FE30E940E198823B4F48091AC03909122
:101F8000AD038B3091054CF044E050E05093B50325
:101F90004093B4030E94800B0AC001969093AD0356
:101FA0008093AC0304C01092AD031092AC03C091B7
:101FB000B403D091B5031C161D060CF054C06091FB
:101FC000B6037091B703882777FD8095982F0E94FC
:101FD000AD1928EB3EE145E85EE30E94611A60938B
:101FE000BE037093BF038093C0039093C1030E940C
:101FF0007A192091B8033091B903260F371F309317
:10200000B9032093B8031092B7031092B603249734
:1020100019F489E190E002C084E690E09093870291
:10202000809386022091B8033091B9038091860293
:10203000909187022817390714F00E945B0B60917A
:10204000BE037091BF038091C0039091C1030E94B1
:102050007A192091840230918502261B370B309328
:102060008502209384024091A2035091A3036091C2
:10207000A4037091A50382E893E021E000E00E94B0
:102080003C0C409146035091470360914803709186
:1020900049038AE693E024E00E943C0C40914A0305
:1020A00050914B0360914C0370914D0386E793E090
:1020B00024E00E943C0C64E670E080E090E00E9426
:1020C000741484E792E00E948D0B9093AF03809389
:1020D000AE0364E670E080E090E00E9474148CE748
:1020E00092E00E948D0B9093B1038093B00364E65D
:1020F00070E080E090E00E9474140E944F0B2091E9
:102100000C0330910D033093690320936803ADB73E
:10211000BEB798970FB6F894BEBF0FBEADBFEDB770
:10212000FEB7319612963C922E92119741E951E0FA
:102130005383428380914203909143039583848328
:1021400080916203909163039783868380916403F7
:1021500090916503918780878091660390916703D2
:10216000938782878AE693E095878487A6E7B3E022
:10217000B787A68780916E0290916F02A09170023E
:10218000B0917102808B918BA28BB38B358B248B9A
:1021900022E833E0378B268B8091A8039091A90326
:1021A000918F808F80919A0390919B03A0919C03C3
:1021B000B0919D03828F938FA48FB58F8091AE03D2
:1021C0009091AF03978F868F8091B0039091B10368
:1021D00091A380A38091B2039091B30393A382A3B0
:1021E000809184029091850295A384A38091B40389
:1021F0009091B50397A386A30E94C00090934004DA
:1022000080933F044DB75EB7485D5F4F0FB6F894BB
:102210005EBF0FBE4DBF97FD42C0C1010E94190CA9
:1022200000D000D000D0EDB7FEB731962AE334E0FD
:10223000ADB7BEB712963C932E9311974BEC51E07D
:1022400053834283958384830E94C00080933F041C
:102250009093400400D0EDB7FEB73196ADB7BEB74E
:1022600012963C922E92119722ED31E03383228315
:10227000358224824AE354E0578346830E94C0009B
:1022800080933F04909340048DB79EB708960FB695
:10229000F8949EBF0FBE8DBFC1010E94AF0D80910B
:1022A000420390914303019690934303809342032A
:1022B00064E670E080E090E00E94741482ED94E0A7
:1022C0000E94F616882309F070CC80914403909107
:1022D0004503019690934503809344036AE070E0C0
:1022E00080E090E00E9474148091680390916903EB
:1022F000181619063CF48336910521F080916A0284
:1023000061E003C080916A0260E00E942415809120
:10231000440390914503895E93400CF4D9C184E74E
:1023200092E00E948D0B9093AF038093AE0364E61E
:1023300070E080E090E00E9474148CE792E00E94CC
:102340008D0B9093B1038093B00364E670E080E05E
:1023500090E00E9474140E944F0B20910C03309166
:102360000D0330936903209368038091BC0390911F
:10237000BD030B970CF4D9C08091B4039091B503C1
:10238000181619060CF0D1C00E945B0B2DB73EB792
:10239000265230400FB6F8943EBF0FBE2DBFEDB7AA
:1023A000FEB73196C2ECD3E0ADB7BEB71296DC9360
:1023B000CE93119787ED91E093838283809162039E
:1023C0009091630395838483809164039091650366
:1023D00097838683809166039091670391878087B6
:1023E0008AE693E09387828786E793E095878487E0
:1023F00080916E0290916F02A0917002B091710273
:1024000086879787A08BB18B809168039091690331
:10241000938B828B82E893E0958B848B8091A803C9
:102420009091A903978B868B80919A0390919B033F
:10243000A0919C03B0919D03808F918FA28FB38F49
:102440008091AE039091AF03958F848F8091B003FC
:102450009091B103978F868F8091B2039091B303CF
:1024600091A380A3809184029091850293A382A37B
:102470008091B4039091B50395A384A30E94C000FA
:102480009093400480933F044DB75EB74A5D5F4F21
:102490000FB6F8945EBF0FBE4DBF97FD41C0CE0191
:1024A0000E94190C00D000D000D0EDB7FEB73196D5
:1024B0000AE314E0ADB7BEB712961C930E931197C2
:1024C0002BEC31E033832283958384830E94C00008
:1024D00080933F049093400400D0EDB7FEB731964F
:1024E000ADB7BEB71296DC93CE93119782ED91E013
:1024F00093838283D583C483178306830E94C0009D
:1025000080933F04909340042DB73EB7285F3F4F20
:102510000FB6F8943EBF0FBE2DBFCE010E94AF0D87
:102520001092BD031092BC03C6C04DB75EB74652B1
:1025300050400FB6F8945EBF0FBE4DBFEDB7FEB76B
:102540003196C2ECD3E0ADB7BEB71296DC93CE9312
:10255000119786E292E09383828380916203909147
:1025600063039583848380916403909165039783CB
:1025700086838091660390916703918780878AE6BE
:1025800093E09387828786E793E09587848780919D
:102590006E0290916F02A0917002B09171028687D5
:1025A0009787A08BB18B338B228B82E893E0958B3E
:1025B000848B8091A8039091A903978B868B80913F
:1025C0009A0390919B03A0919C03B0919D03808FEF
:1025D000918FA28FB38F8091AE039091AF03958FAF
:1025E000848F8091B0039091B103978F868F8091F3
:1025F000B2039091B30391A380A380918402909140
:10260000850293A382A38091B4039091B50395A30F
:1026100084A30E94C0009093400480933F044DB770
:102620005EB74A5D5F4F0FB6F8945EBF0FBE4DBFF9
:1026300097FD41C0CE010E94190C00D000D000D0FF
:10264000EDB7FEB731960AE314E0ADB7BEB7129608
:102650001C930E9311972BEC31E0338322839583E7
:1026600084830E94C00080933F049093400400D074
:10267000EDB7FEB73196ADB7BEB71296DC93CE93E9
:10268000119782ED91E093838283D583C48317836E
:1026900006830E94C00080933F04909340042DB7AE
:1026A0003EB7285F3F4F0FB6F8943EBF0FBE2DBF19
:1026B000CE010E94AF0D1092450310924403809109
:1026C000BC039091BD0301969093BD038093BC031E
:1026D000DF91CF911F910F91FF90EF90DF90CF90FE
:1026E000BF90AF909F908F907F906F905F904F9032
:1026F0003F902F9008950E94AC140E94D00A0E942F
:10270000BE0DFDCF823000F5E82FF0E0EE0FFF1F89
:10271000EF5BFB4F71836083882319F08130A1F454
:1027200008C0809169008C7F842B80936900E89AAF
:10273000089580916900440F551F440F551F837FF2
:10274000842B80936900E99A0895823080F488236D
:1027500019F0813021F402C0E89801C0E998E82F0F
:10276000F0E0EE0FFF1FEF5BFB4F11821082089528
:102770001F920F920FB60F9211242F933F934F93F6
:102780005F936F937F938F939F93AF93BF93EF93D9
:10279000FF938091410490914204892B29F0E091AC
:1027A0004104F09142040995FF91EF91BF91AF91DF
:1027B0009F918F917F916F915F914F913F912F9159
:1027C0000F900FBE0F901F9018951F920F920FB68B
:1027D0000F9211242F933F934F935F936F937F93A7
:1027E0008F939F93AF93BF93EF93FF938091430495
:1027F00090914404892B29F0E0914304F091440422
:102800000995FF91EF91BF91AF919F918F917F912A
:102810006F915F914F913F912F910F900FBE0F904D
:102820001F9018951F920F920FB60F9211242F939D
:102830003F934F935F936F937F938F939F93AF9348
:10284000BF932091490430914A0440914B04509128
:102850004C0470914D04DA01C9010296A11DB11D0D
:10286000672F6A5F6D3730F06D57DA01C901039643
:10287000A11DB11D60934D048093490490934A04B7
:10288000A0934B04B0934C0480914504909146046E
:10289000A0914704B09148040196A11DB11D8093F9
:1028A000450490934604A0934704B0934804BF9115
:1028B000AF919F918F917F916F915F914F913F91D8
:1028C0002F910F900FBE0F901F9018958FB7F8940F
:1028D0002091490430914A0440914B0450914C049A
:1028E0008FBFB901CA010895EF92FF920F931F9312
:1028F0007B018C018FB7F8944091490450914A04B0
:1029000060914B0470914C048FBF2FB7F894809165
:10291000490490914A04A0914B04B0914C042FBFFC
:10292000841B950BA60BB70BE816F9060A071B07C5
:1029300060F71F910F91FF90EF900895019759F064
:10294000019749F0FC01EE0FFF1F31978FB7F89404
:102950003197F1F78FBF0895789484B5826084BD74
:1029600084B5816084BD85B5826085BD85B5816093
:1029700085BDEEE6F0E0808181608083E1E8F0E0F3
:10298000808182608083808181608083E0E8F0E0E4
:10299000808181608083E1EBF0E0808184608083CE
:1029A000E0EBF0E0808181608083EAE7F0E0808105
:1029B0008460808380818260808380818160808365
:1029C0008081806880831092C10008958F709091FB
:1029D00088029295990F990F907C982B90937C0088
:1029E00080917A00806480937A0080917A0086FDDD
:1029F000FCCF2091780040917900942F80E030E066
:102A0000282B392BC9010895282F30E0C90186569B
:102A10009F4FFC0194912A573F4FF90184918823DD
:102A200091F0E82FF0E0EE0FFF1FE859FF4FA5915E
:102A3000B491662329F48C91909589238C93089501
:102A40008C91892B8C930895482F50E0CA018255B0
:102A50009F4FFC012491CA0186569F4FFC0194911F
:102A60004A575F4FFA0134913323D1F1222331F1D8
:102A7000233021F4809180008F7705C0243031F419
:102A8000809180008F7D8093800018C0213019F4E0
:102A900084B58F7704C0223021F484B58F7D84BD46
:102AA0000DC0263021F48091B0008F7705C027300B
:102AB00029F48091B0008F7D8093B000E32FF0E087
:102AC000EE0FFF1FEE58FF4FA591B491662329F436
:102AD0008C91909589238C9308958C91892B8C935C
:102AE0000895682F70E0CB0182559F4FFC0124911F
:102AF000CB0186569F4FFC0144916A577F4FFB01E3
:102B00009491992319F420E030E038C0222331F168
:102B1000233021F4809180008F7705C0243031F478
:102B2000809180008F7D8093800018C0213019F43F
:102B300084B58F7704C0223021F484B58F7D84BDA5
:102B40000DC0263021F48091B0008F7705C027306A
:102B500029F48091B0008F7D8093B000892F90E0A0
:102B6000880F991F84589F4FFC01A591B4918C91B7
:102B700020E030E0842311F021E030E0C901089525
:102B80001F920F920FB60F9211242F933F934F93E2
:102B90005F936F937F938F939F93AF93BF93EF93C5
:102BA000FF934091C600E091CE04F091CF04CF0195
:102BB000019660E870E00E94E31A9C018091D004C5
:102BC0009091D1042817390739F0E25BFB4F40831D
:102BD0003093CF042093CE04FF91EF91BF91AF913A
:102BE0009F918F917F916F915F914F913F912F9125
:102BF0000F900FBE0F901F9018955F926F927F926B
:102C00008F929F92AF92BF92CF92DF92EF92FF92FC
:102C10000F931F93CF93DF93EC013A014B014132A5
:102C200081EA580787E0680780E078070CF07FC0EA
:102C300060E472E48FE090E0A40193010E94181B0D
:102C40002150304040405040CA01B90122E030E0FC
:102C500040E050E00E94181B59016A01A60195014D
:102C6000209530954095509594E0220F331F441FD6
:102C7000551F9A95D1F760E072E18AE790E00E94D3
:102C8000181BCA01B9012FEF30E040E050E00E946C
:102C9000C41AA40193010E94181BC90181509F4FBF
:102CA000181619061CF4522E5A9403C05524539436
:102CB000521A60E874E88EE190E0A40193010E944A
:102CC000181B2150304040405040CA01B90122E059
:102CD00030E040E050E00E94181B20953095409570
:102CE000509583E0220F331F441F551F8A95D1F75B
:102CF00060E072E18AE790E00E94181BCA01B90106
:102D00002FEF30E040E050E00E94C41AA40193018C
:102D10000E94181BC90181509F4F181619061CF4F8
:102D2000822F815002C081E0821B851500F5E88565
:102D3000F98581E090E00A8802C0880F991F0A9403
:102D4000E2F7808360E874E88EE190E0A4019301EB
:102D50000E94181B2150304040405040CA01B90128
:102D600022E030E040E050E00E94181B04C0E885FB
:102D7000F98510829501EC81FD813083EE81FF8120
:102D80002083EA85FB85208141E050E0CA010E8462
:102D900002C0880F991F0A94E2F7282B2083EA8546
:102DA000FB852081CA010F8402C0880F991F0A94F5
:102DB000E2F7282B2083EA85FB858081088802C002
:102DC000440F551F0A94E2F7842B8083DF91CF9143
:102DD0001F910F91FF90EF90DF90CF90BF90AF9039
:102DE0009F908F907F906F905F900895DC01129676
:102DF000ED91FC911397E058FF4F8191919180588C
:102E00009F4F20813181821B930B60E870E00E940C
:102E1000E31A0895CF93DF93DC011296ED91FC91B4
:102E20001397EF01CE57DF4F48815981E058FF4F8C
:102E300080819181E058F0408417950719F42FEFB5
:102E40003FEF0CC0E40FF51F2081CA01019660E836
:102E500070E00E94E31A9983888330E0C901DF9112
:102E6000CF910895FC01A085B18521898C9190E0D6
:102E7000022E02C0959587950A94E2F780FFF6CF5F
:102E80000484F585E02D608308958DEB92E09093A6
:102E9000D3048093D2048EE494E09093D50480937D
:102EA000D40485EC90E09093D7048093D60484EC0E
:102EB00090E09093D9048093D80480EC90E09093B4
:102EC000DB048093DA0481EC90E09093DD0480933E
:102ED000DC0486EC90E09093DF048093DE0484E0D1
:102EE0008093E00483E08093E10487E08093E20430
:102EF00085E08093E30481E08093E40408950F93D8
:102F00001F93CF93DF938C01EB0109C02196D80169
:102F1000ED91FC910190F081E02DC8010995688147
:102F20006623A1F7DF91CF911F910F910895EF9242
:102F3000FF920F931F93CF93DF938C017B01EA01E4
:102F40000CC0D7016D917D01D801ED91FC910190EC
:102F5000F081E02DC80109952197209791F7DF9125
:102F6000CF911F910F91FF90EF900895DC01ED91AB
:102F7000FC910280F381E02D099508950F931F9332
:102F80008C01DC01ED91FC910190F081E02D6DE070
:102F90000995D801ED91FC910190F081E02DC801D7
:102FA0006AE009951F910F9108952F923F924F92D9
:102FB0005F926F927F928F929F92AF92BF92CF92C9
:102FC000DF92EF92FF920F931F93DF93CF93CDB7D2
:102FD000DEB7A0970FB6F894DEBF0FBECDBF1C01C1
:102FE0006A017B01411551056105710549F4DC0158
:102FF000ED91FC910190F081E02D60E3099554C0C2
:10300000882499245401422E55246624772401E013
:1030100010E00C0F1D1F080D191DC701B601A301FB
:1030200092010E94F61AF80160830894811C911C99
:10303000A11CB11CC701B601A30192010E94F61A9E
:10304000C901DA016C017D01C114D104E104F1046C
:10305000F1F681E0E82EF12CEC0EFD1EE80CF91CD7
:103060003E010894611C711CD501C4010197A1099E
:10307000B1096C01C818D90814C0F601EE0DFF1D86
:1030800060816A3010F4605D01C0695CD101ED912E
:10309000FC910190F081E02DC10109950894E108AF
:1030A000F1086E147F0449F7A0960FB6F894DEBFBE
:1030B0000FBECDBFCF91DF911F910F91FF90EF9089
:1030C000DF90CF90BF90AF909F908F907F906F9048
:1030D0005F904F903F902F900895EF92FF920F9343
:1030E0001F93CF93DF93EC017A018B0177FF0FC021
:1030F000E881F9810190F081E02D6DE2099510954C
:103100000095F094E094E11CF11C011D111DCE010D
:10311000B801A7012AE00E94D517DF91CF911F9136
:103120000F91FF90EF900895DC012115310541F4D6
:10313000ED91FC910190F081E02D642F09950895A7
:103140002A30310519F40E946D1808950E94D51790
:1031500008955058BB27AA270ED075C166D130F00C
:103160006BD120F031F49F3F11F41EF45BC10EF4DB
:10317000E095E7FB51C1E92F77D180F3BA176207D9
:1031800073078407950718F071F49EF58FC10EF44C
:10319000E0950B2EBA2FA02D0B01B90190010C0167
:1031A000CA01A0011124FF27591B99F0593F50F47F
:1031B000503E68F11A16F040A22F232F342F4427D7
:1031C000585FF3CF469537952795A795F0405395CF
:1031D000C9F77EF41F16BA0B620B730B840BBAF09F
:1031E0009150A1F0FF0FBB1F661F771F881FC2F70A
:1031F0000EC0BA0F621F731F841F48F4879577951E
:103200006795B795F7959E3F08F0B3CF9395880FD4
:1032100008F09927EE0F979587950895D9D008F46F
:1032200081E008950CD00FC107D140F0FED030F0FE
:1032300021F45F3F19F0F0C0511139C1F3C014D12E
:1032400098F39923C9F35523B1F3951B550BBB276D
:10325000AA2762177307840738F09F5F5F4F220F1A
:10326000331F441FAA1FA9F333D00E2E3AF0E0E813
:1032700030D091505040E695001CCAF729D0FE2F5F
:1032800027D0660F771F881FBB1F261737074807F1
:10329000AB07B0E809F0BB0B802DBF01FF279358A7
:1032A0005F4F2AF09E3F510568F0B6C000C15F3FF6
:1032B000ECF3983EDCF3869577956795B795F7958F
:1032C0009F5FC9F7880F911D9695879597F9089587
:1032D000E1E0660F771F881FBB1F62177307840723
:1032E000BA0720F0621B730B840BBA0BEE1F88F732
:1032F000E095089504D06894B111D9C00895BCD068
:1033000088F09F5790F0B92F9927B751A0F0D1F0CE
:10331000660F771F881F991F1AF0BA95C9F712C058
:10332000B13081F0C3D0B1E00895C0C0672F782FCD
:103330008827B85F39F0B93FCCF3869577956795C4
:10334000B395D9F73EF490958095709561957F4F30
:103350008F4F9F4F0895E89409C097FB3EF49095D6
:103360008095709561957F4F8F4F9F4F9923A9F05E
:10337000F92F96E9BB279395F695879577956795ED
:10338000B795F111F8CFFAF4BB0F11F460FF1BC031
:103390006F5F7F4F8F4F9F4F16C0882311F096E9C4
:1033A00011C0772321F09EE8872F762F05C0662372
:1033B00071F096E8862F70E060E02AF09A95660F2B
:1033C000771F881FDAF7880F9695879597F90895E4
:1033D000990F0008550FAA0BE0E8FEEF1616170626
:1033E000E807F907C0F012161306E407F50798F08E
:1033F000621B730B840B950B39F40A2661F0232BA7
:10340000242B252B21F408950A2609F4A140A69522
:103410008FEF811D811D089597F99F6780E870E007
:1034200060E008959FEF80EC089500240A9416163A
:10343000170618060906089500240A9412161306A2
:10344000140605060895092E0394000C11F4882330
:1034500052F0BB0F40F4BF2B11F460FF04C06F5F4C
:103460007F4F8F4F9F4F089557FD9058440F551F22
:1034700059F05F3F71F04795880F97FB991F61F0F6
:103480009F3F79F087950895121613061406551F6D
:10349000F2CF4695F1DF08C0161617061806991FD9
:1034A000F1CF86957105610508940895E894BB27CE
:1034B00066277727CB0197F908958ADF08F48FEF05
:1034C00008950BD0C0CFB1DF28F0B6DF18F09523F8
:1034D00009F0A2CFA7CF1124EACFC6DFA0F3959FB2
:1034E000D1F3950F50E0551F629FF001729FBB27EB
:1034F000F00DB11D639FAA27F00DB11DAA1F649F97
:103500006627B00DA11D661F829F2227B00DA11D49
:10351000621F739FB00DA11D621F839FA00D611DCF
:10352000221F749F3327A00D611D231F849F600DF0
:10353000211D822F762F6A2F11249F5750408AF029
:10354000E1F088234AF0EE0FFF1FBB1F661F771FB5
:10355000881F91505040A9F79E3F510570F05CCFF5
:10356000A6CF5F3FECF3983EDCF3869577956795A1
:10357000B795F795E7959F5FC1F7FE2B880F911DD3
:103580009695879597F90895629FD001739FF001F2
:10359000829FE00DF11D649FE00DF11D929FF00DE3
:1035A000839FF00D749FF00D659FF00D9927729F1A
:1035B000B00DE11DF91F639FB00DE11DF91FBD01A5
:1035C000CF011124089597FB092E07260AD077FD15
:1035D00004D049D006D000201AF4709561957F4F31
:1035E0000895F6F7909581959F4F0895A1E21A2EC0
:1035F000AA1BBB1BFD010DC0AA1FBB1FEE1FFF1F97
:10360000A217B307E407F50720F0A21BB30BE40BE6
:10361000F50B661F771F881F991F1A9469F760952D
:103620007095809590959B01AC01BD01CF010895E7
:1036300097FB092E05260ED057FD04D0D7DF0AD000
:10364000001C38F450954095309521953F4F4F4FD1
:103650005F4F0895F6F790958095709561957F4F2F
:103660008F4F9F4F0895AA1BBB1B51E107C0AA1F94
:10367000BB1FA617B70710F0A61BB70B881F991F13
:103680005A95A9F780959095BC01CD010895EE0F4C
:10369000FF1F0590F491E02D09942F923F924F92D5
:1036A0005F926F927F928F929F92AF92BF92CF92D2
:1036B000DF92EF92FF920F931F93CF93DF93CDB7DB
:1036C000DEB7CA1BDB0B0FB6F894DEBF0FBECDBF53
:1036D00009942A88398848885F846E847D848C8424
:1036E0009B84AA84B984C884DF80EE80FD800C812D
:1036F0001B81AA81B981CE0FD11D0FB6F894DEBF10
:0C3700000FBECDBFED010895F894FFCF7F
:10370C0047504747410024505542582C34302C47E1
:10371C004C4C2C302C302C302C302A35430D0A00DC
:10372C0024505542582C34302C5A44412C302C30D7
:10373C002C302C302A34340D0A0024505542582C8D
:10374C0034302C5654472C302C302C302C302A351D
:10375C00450D0A0024505542582C34302C475356F2
:10376C002C302C302C302C302A35390D0A002450BA
:10377C005542582C34302C4753412C302C302C30A3
:10378C002C302A34450D0A002D00002E000030008C
:10379C0000242441544C41532C25642C25643A2597
:1037AC00643A25642C25732C25732C256C642C25EC
:1037BC00642C25733B25643B256C643B25643B25BD
:1037CC00643B25643B25643B2564002A2530325834
:1037DC000A002573257300242441544C41532F4E69
:1037EC006F204750532F25643A25643A25642F25C2
:1037FC00732F25732F256C642F25642F25732F258C
:10380C00642F256C642F25642F25642F25642F25A8
:10381C00642F25642F53746F7070696E672042613A
:10382C006C6C61737400242441544C41532F4E6FC3
:10383C00204750532F25643A25643A25642F25736D
:10384C002F25732F256C642F25642F25732F25644A
:10385C002F256C642F25642F25642F25642F256458
:10386C002F2564000800030004000D000C007B00F1
:10387C0000000A002826F52D020000CC285D262E1B
:10388C0002000034F40164000105373705B5620607
:10389C00242400FFFF060300000000102700000591
:1038AC0000FA00FA0064002C010000000000000087
:1038BC000000000000000016DC0000000032177F42
:0438CC001797170033
:00000001FF
