:100000000C9463000C9455140C9482140C948B0083
:100010000C948B000C948B000C948B000C948B0034
:100020000C948B000C948B000C948B000C948B0024
:100030000C948B000C948B000C948B000C948B0014
:100040000C94AF140C948B000C945D160C948B00E4
:100050000C948B000C948B000C948B000C948B00F4
:100060000C948B000C948B000000000024002700EF
:100070002A0000000000250028002B0000000000DE
:1000800023002600290004040404040404040202DA
:100090000202020203030303030301020408102007
:1000A0004080010204081020010204081020000012
:1000B0000007000201000003040600000000000029
:1000C0000000E908E21711241FBECFEFD8E0DEBF21
:1000D000CDBF13E0A0E0B1E0ECEAF9E302C0059087
:1000E0000D92A431B107D9F715E0A4E1B3E001C046
:1000F0001D92A533B107E1F710E0C6ECD0E004C0D3
:100100002297FE010E94991CC23CD107C9F70E94A8
:1001100018140C94D41C0C940000FB01DC010D900D
:100120000020E9F7119701900D920020E1F7089562
:10013000FB01DC0101900D920020E1F70895FB0125
:100140009F01E8944230C4F04532B4F44A3029F4B7
:1001500097FB1EF4909581959F4F642F77270E94FF
:10016000831C805D8A330CF0895D8193CB010097FD
:10017000A1F716F45DE251931082C9010C94D702E5
:10018000AEE0B0E0E6ECF0E00C94AB1C0D891E890B
:1001900086E08C831A8309838FEF9FE79E838D838C
:1001A0009E01275E3F4FCE0101966F89788DA90190
:1001B0000E94E4002F813885020F131FF80110827E
:1001C0002E96E4E00C94C71CABE0B0E0EAEEF0E061
:1001D0000C949D1C3C012B015A01FC0117821682D4
:1001E000838181FD03C06FEF7FEFC6C19AE0892E46
:1001F0001E010894211C311CF3012381F20123FD0F
:10020000859123FF81912F01882309F4B2C18532A2
:1002100039F423FD859123FF81912F01853229F443
:1002200090E0B3010E94E702E7CF982FFF24EE246D
:100230009924FFE1FF15D0F09B3269F09C3228F43D
:10024000903259F0933291F40EC09D3249F09033C0
:1002500069F441E024C052E0F52A84E0F82A28C07D
:1002600098E0F92A25C0E0E1FE2A22C0F7FC29C067
:10027000892F80538A3070F4F6FE05C0989C902C2C
:100280001124980E15C0E89CE02C1124E80EF0E231
:10029000FF2A0EC09E3229F4F6FC6BC140E4F42A1A
:1002A00007C09C3619F450E8F52A02C0983649F484
:1002B000F20123FD959123FF91912F01992309F0DC
:1002C000B8CF892F8554833018F08052833038F4AA
:1002D00044E050E0A40EB51E5FE359830FC093368F
:1002E00031F0933779F0933509F056C020C0F5010D
:1002F0008081898342E050E0A40EB51E610101E0D7
:1003000010E012C0F501C080D180F6FC03C06FEF91
:100310007FEF02C0692D70E042E050E0A40EB51EF0
:10032000C6010E94CC028C015FE7F52214C0F501E2
:10033000C080D180F6FC03C06FEF7FEF02C0692D53
:1003400070E042E050E0A40EB51EC6010E94C1025A
:100350008C0150E8F52AF3FE07C01AC080E290E055
:10036000B3010E94E702EA948E2D90E00817190766
:10037000A8F30EC0F601F7FC8591F7FE81916F019D
:1003800090E0B3010E94E702E110EA9401501040AE
:100390000115110579F7EAC0943611F0993669F51F
:1003A000F7FE08C0F501208131814281538184E04C
:1003B00090E00AC0F501808191819C01442737FDBE
:1003C0004095542F82E090E0A80EB91E9FE6F922D6
:1003D00057FF09C050954095309521953F4F4F4F9D
:1003E0005F4FE0E8FE2ACA01B901A1012AE030E02E
:1003F0000E941303D82ED21840C0953729F41F2D20
:100400001F7E2AE030E01DC01F2D197F9F3661F04E
:10041000903720F4983509F0ACC00FC0903739F010
:10042000983709F0A6C004C028E030E00AC0106187
:1004300014FD146020E130E004C014FD166020E1DA
:1004400032E017FF08C0F5016081718182819381DC
:1004500044E050E008C0F50180819181BC0180E05A
:1004600090E042E050E0A40EB51EA1010E941303EB
:10047000D82ED2188FE7F82EF122F6FE0BC05EEFD1
:10048000F522D91438F4F4FE07C0F2FC05C08FEE53
:10049000F82202C01D2D01C0192DF4FE0DC0FE0171
:1004A000ED0DF11D8081803319F499EEF92208C019
:1004B0001F5FF2FE05C003C08F2D867809F01F5F15
:1004C0000F2DF3FC14C0F0FE0FC01E1510F09D2C74
:1004D0000BC09D2C9E0C911A1E2D06C080E290E050
:1004E000B3010E94E7021F5F1E15C0F304C01E1572
:1004F00010F4E11A01C0EE2404FF0FC080E390E085
:10050000B3010E94E70202FF1DC001FD03C088E79E
:1005100090E00EC088E590E00BC0802F867891F0C7
:1005200001FF02C08BE201C080E2F7FC8DE290E0A7
:10053000B3010E94E70206C080E390E0B3010E948D
:10054000E7029A94D914C0F3DA94F101ED0DF11D8C
:10055000808190E0B3010E94E702DD20A9F706C088
:1005600080E290E0B3010E94E702EA94EE20C1F736
:1005700043CEF30166817781CB012B96E2E10C94A7
:10058000B91CFC010590615070400110D8F78095AE
:1005900090958E0F9F1F0895FC016150704001904F
:1005A0000110D8F7809590958E0F9F1F0895DC015C
:1005B000FC01672F71917723E1F7329704C07C919A
:1005C0006D9370836291AE17BF07C8F308950F93C0
:1005D0001F93CF93DF938C01EB018B8181FF1BC0B5
:1005E00082FF0DC02E813F818C819D8128173907A4
:1005F00064F4E881F9810193F983E88306C0E88512
:10060000F985802F0995892B31F48E819F81019680
:100610009F838E8302C00FEF1FEFC801DF91CF9140
:100620001F910F910895FA01AA27283051F1203126
:1006300081F1E8946F936E7F6E5F7F4F8F4F9F4F76
:10064000AF4FB1E03ED0B4E03CD0670F781F891FB8
:100650009A1FA11D680F791F8A1F911DA11D6A0F86
:10066000711D811D911DA11D20D009F468943F9139
:100670002AE0269F11243019305D3193DEF6CF0138
:100680000895462F4770405D4193B3E00FD0C9F7FE
:10069000F6CF462F4F70405D4A3318F0495D31FD6B
:1006A0004052419302D0A9F7EACFB4E0A6959795BE
:1006B000879577956795BA95C9F700976105710594
:1006C00008959B01AC010A2E0694579547953795DE
:1006D0002795BA95C9F7620F731F841F951FA01D38
:1006E0000895FC012FEF3FEF4FEF5FEF2083318341
:1006F0004283538310861186128613868FEF99ECFE
:10070000AAE9BBE3808B918BA28BB38B808F918FF7
:10071000A28FB38F80A391A3A2A3B3A380A791A715
:10072000A2A7B3A780AB91ABA2ABB3AB20AF31AF65
:1007300042AF53AFE05CFF4F20833183428353834A
:10074000389683E690E0A0E0B0E081939193A19386
:10075000B19311921082709682E08193119211925E
:100760001192119211921192119211921192118281
:100770001082799710820895EF92FF920F931F9342
:10078000CF93DF939C01EE24FC01E25BFF4F80815D
:100790008D3231F4EE24E394E901C15BDF4F01C0F7
:1007A000EF018E0120E030E040E050E018C0CA01C7
:1007B000B9012AE030E040E050E00E94141C2F2DE7
:1007C000332727FD3095432F532F2053304040408F
:1007D0005040260F371F481F591F0F5F1F4FF8014A
:1007E000F0808F2D80538A3010F3CA01B90124E6BE
:1007F00030E040E050E00E94141C9B01AC0101C0BD
:1008000021969881892F80538A30D0F39E3229F522
:100810009981892F80538A3000F58AE09802C001BF
:100820001124805E9140AA2797FDA095BA2F280F2A
:10083000391F4A1F5B1F9A81892F80538A3068F4C1
:10084000892F992787FD9095C097AA2797FDA09596
:10085000BA2F280F391F4A1F5B1FEE2039F0509521
:100860004095309521953F4F4F4F5F4FB901CA01D9
:10087000DF91CF911F910F91FF90EF9008954F92CC
:100880005F926F927F928F929F92AF92BF92CF9220
:10089000DF92EF92FF920F931F93CF93DF932EE49B
:1008A000822E912C880E991EE40120E030E040E079
:1008B00050E017C0CA01B9012AE030E040E050E042
:1008C0000E94141C212F332727FD3095432F532FCF
:1008D0002053304040405040260F371F481F591FBB
:1008E00021961881812F80538A3020F3722E632E37
:1008F000542E452EB901CA0124E630E040E050E014
:100900000E94461C20E137E240E050E00E94141CA7
:100910005B016C0103C00894811C911CF40190815F
:10092000892F80538A30B8F39E3269F588EEE82E1D
:1009300083E0F82E012D112D1DC0332727FD3095A2
:1009400020533040442737FD4095542FC801B7014C
:100950000E94141CA60EB71EC81ED91EC801B701DE
:100960002AE030E040E050E00E94461CC901DA0174
:100970007C018D010894811C911CF4012081822F3F
:1009800080538A30D0F2C601B50126E030E040E065
:1009900050E00E94461C79018A01672D762D852D35
:1009A000942D24E630E040E050E00E94461CCA014D
:1009B000B90120EA36E841E050E00E94141CE60E3E
:1009C000F71E081F191FB701C801DF91CF911F91B2
:1009D0000F91FF90EF90DF90CF90BF90AF909F90DE
:1009E0008F907F906F905F904F900895FF920F933C
:1009F0001F93CF93DF93EC01C35BDF4F8881CD540E
:100A0000D040882309F49BC0C25BDF4F9881CE544D
:100A1000D040892F8154863038F4292F332727FD81
:100A20003095275330400CC0292F332727FD3095B0
:100A30009156963018F42755304002C0205330406C
:100A4000C15BDF4F4881CF54D040842F8154863022
:100A500030F4842F992787FD9095C7970BC0842F7A
:100A6000992787FD90954156463018F48755904058
:100A700001C0C09744E0220F331F4A95E1F7982F39
:100A8000920FC45BDF4F8881CC54D040981709F097
:100A90004DC0C05ADF4F8881C056D040882309F42A
:100AA0009CC1FE01EB59FF4F80819181019691839A
:100AB00080838CAD9DADAEADBFAD88AF99AFAAAF11
:100AC000BBAFFE01E05CFF4FCC5BDF4F88819981BB
:100AD000AA81BB8180839183A283B3836996888135
:100AE000CD55D040882301F58CA19DA1AEA1BFA119
:100AF00088A399A3AAA3BBA38C819D81AE81BF814A
:100B000088839983AA83BB838C899D89AE89BF8999
:100B1000888B998BAA8BBB8B8C8D9D8DAE8DBF8D59
:100B2000888F998FAA8FBB8F81E058C1FE01E95948
:100B3000FF4F808191810196918380834EC1C25A7B
:100B4000DF4F3881CE55D040332399F4DE01A25BCC
:100B5000BF4FE0E0F1E002C0119631969C919923DD
:100B600021F080819817C1F33FC1C35ADF4F18822B
:100B700034C1C35ADF4F8881CD55D040823009F44B
:100B80002CC1C25BDF4F2881CE54D040222309F410
:100B900024C1882319F084E690E002C088EC90E03C
:100BA000830F911D8D36910509F4AFC08E369105E6
:100BB0002CF58836910509F46AC0893691056CF4E4
:100BC0008636910509F44BC0873691050CF04FC06D
:100BD0008536910509F001C134C08A36910509F4C2
:100BE00071C08A3691050CF465C08B36910509F405
:100BF0007CC08C36910509F0F0C07FC08C3C91051B
:100C000009F458C08D3C91055CF48A3C910579F15A
:100C10008B3C9105E4F5893C910509F0DEC011C0DB
:100C20008E3C910509F49CC08E3C91050CF44AC0A1
:100C30008F3C910509F49DC0813D910509F0CDC01F
:100C4000C5C0CE010E94BC036C837D838E839F83CD
:100C50000E9403156CAF7DAF8EAF9FAFBEC0FE018B
:100C6000E05AFF4F1082213409F0B7C07FC0CE0197
:100C70000E943F046C8B7D8B8E8B9F8B0E94031593
:100C8000CC5BDF4F688379838A839B83A6C023353F
:100C900009F0A3C08C899D89AE89BF89B095A095C4
:100CA000909581959F4FAF4FBF4F8C8B9D8BAE8B97
:100CB000BF8B93C0CE010E943F046C8F7D8F8E8FBF
:100CC0009F8F8BC0273509F088C08C8D9D8DAE8D90
:100CD000BF8DB095A095909581959F4FAF4FBF4F19
:100CE0008C8F9D8FAE8FBF8F78C0CE010E94BC03CA
:100CF0006CA77DA78EA79FA770C0CE010E94BC03E2
:100D00006CAB7DAB8EAB9FAB68C08E01025B1F4F9F
:100D100020E030E040E050E018C0CA01B9012AE00C
:100D200030E040E050E00E94141C2F2D332727FDB7
:100D30003095432F532F2053304040405040260FD2
:100D4000371F481F591F0F5F1F4FF801F0808F2D6D
:100D500080538A3010F32C873D874E875F873DC0D4
:100D6000FE01E05AFF4F10822133BCF181E0808305
:100D700034C08E01025B1F4F20E030E040E050E0C5
:100D800018C0CA01B9012AE030E040E050E00E94FA
:100D9000141C2F2D332727FD3095432F532F20531D
:100DA000304040405040260F371F481F591F0F5FEB
:100DB0001F4FF801F0808F2D80538A3010F3C85BED
:100DC000DF4F288339834A835B8307C0CE010E94AB
:100DD000BC036CA37DA38EA39FA380E0DF91CF9182
:100DE0001F910F91FF900895C35ADF4F82E08883CF
:100DF000F4CF1F93CF93DF93EC01162FFC01EF5933
:100E0000FF4F80819181A281B3810196A11DB11D07
:100E100080839183A283B3836432A1F1DE01A15A5E
:100E2000BF4F65322CF46A3069F06D30C9F50AC0E5
:100E30006A3241F06C32A1F5FE01E45BFF4F808124
:100E4000862780838C918F3010F090E00AC0FE01DD
:100E5000E80FF11DE25BFF4F1082CE010E94F60405
:100E6000982FFE01E25AFF4F80818F5F8083C15A25
:100E7000DF4F1882FE01729710821A3251F581E01D
:100E8000808327C0C15ADF4F18821A926297188256
:100E9000619682E08883609718826396188218C0F2
:100EA0008C918E3040F4FE01E80FF11DE25BFF4FA4
:100EB00010838F5F8C93C35BDF4F8881CD54D0400C
:100EC000882331F4FE01E45BFF4F8081812780831A
:100ED00090E0892FDF91CF911F910895DC011A9640
:100EE0006C931A97462F50E0CA018A579F4FFC0116
:100EF00024911B962C931B9746565F4FFA018491C1
:100F00001C968C931C9730E0220F331FF901EE588A
:100F1000FF4F859194911E969C938E931D97F90196
:100F2000E458FF4F8591949150969C938E931F9710
:100F3000F901E859FF4F8591949152969C938E93B5
:100F400051978FEF18968C93189719961C921997B2
:100F500087E0FD01E80FF11D1082882311F0815018
:100F6000F8CF0895FF920F931F938C01DC015196E7
:100F7000ED91FC91529780811C969C911C97892B36
:100F800080831D96ED91FC911E9790811C968C910B
:100F900080958923808381E090E00E943B15D801F1
:100FA0005196ED91FC91529790811C968C91809571
:100FB0008923808385E090E00E943B15D8011F962D
:100FC000ED91FC9150972081FF2430E01C968C918C
:100FD00090E028233923232B11F0FF24F39482E39C
:100FE00090E00E943B158F2D1F910F91FF90089567
:100FF000EF92FF920F931F93CF93DF937C0101E059
:1010000010E0C0E0D0E0C7010E94B2078111102BB0
:10101000000F2196C830D105B1F7812FDF91CF9114
:101020001F910F91FF90EF900895EF92FF920F9311
:101030001F937C01062FDC015196ED91FC91529794
:1010400080811C969C911C97892B80831D96ED9125
:10105000FC911E9790811C968C91809589238083AA
:10106000017010E0F801E95FFC4F808190E00E9480
:101070003B15D7011D96ED91FC911E9780811C9622
:101080009C91892B80830B5F1C4FF801808190E03D
:101090000E943B151F910F91FF90EF900895CF9202
:1010A000DF92EF92FF920F931F93CF93DF938C0108
:1010B000E42EFF24F394C0E0D0E0C62EDD2460E0EF
:1010C0008F2D90E08C219D21892B09F061E0C801D2
:1010D0000E941508FF0C2196C830D10581F7EE203B
:1010E00051F4F801828560E00E94A115F801828523
:1010F00060E00E94C115DF91CF911F910F91FF9089
:10110000EF90DF90CF900895EF92FF920F931F938F
:10111000CF93DF938C017B0165E540E00E944F088F
:10112000C0E0D0E0F701EC0FFD1FC801608140E096
:101130000E944F082196C830D105A1F7DF91CF91C9
:101140001F910F91FF90EF9008951F93CF93DF931E
:10115000EC018A8560E00E94A1151DE7115010F492
:1011600010E028C082E090E00E943B158A850E9432
:101170000E16892B99F38A8560E00E94C1158A8535
:1011800061E00E94A11584EF91E00E943B158A85E1
:1011900060E00E94A11581E490E00E943B158A85E1
:1011A0000E940E1610E0892B09F411E08AEE91E0FE
:1011B0000E943B15812FDF91CF911F91089580915F
:1011C0000604909107040196909307048093060407
:1011D000089584E193E00E9471038FE793E069E052
:1011E0000E946E0708950F931F9388E061E00E94AC
:1011F000A11583E061E00E94A11584E061E00E94F6
:10120000A1158DE061E00E94A1158CE061E00E94D3
:10121000A11502E215E0C80140E855E260E070E087
:101220000E949A16C80166E071E00E945318C80136
:1012300060E271E00E945318C8016AE371E00E9405
:101240005318C80164E571E00E945318C8016EE6A6
:1012500071E00E9453188DE061E00E94C11588E0A2
:1012600061E00E94C1158CE061E00E94C11560ED53
:1012700077E080E090E00E941115C80168E871E015
:101280000E9472188CE060E00E94C1158DE060E061
:101290000E94C1151F910F91089585E00E9483154A
:1012A0006AE070E00E94331C7093030460930204B0
:1012B00008958CE060E00E94C11580E00E94421415
:1012C00010920504109204041092F0031092F1039E
:1012D0001092F2031092F3031092EC031092ED03BC
:1012E0001092EE031092EF0310920904109208047A
:1012F0001092FD031092FC03089580E06FED78E0FA
:1013000043E050E00E941F148CE061E00E94C11590
:101310000895EF92FF920F931F93E090F403F090E3
:10132000F5030091F6031091F703C801B70120E01F
:1013300030E040E85FE30E945E1A88230CF0CAC0E8
:10134000C801B70120E030E040E85FEB0E94AD1B30
:1013500018160CF0BFC08091EA029091EB02A091A8
:10136000EC02B091ED0289599A43A040B0400CF4D0
:10137000B1C082E295E067E971E00E9453182091C4
:10138000E0033091E1034091E2035091E303E090E8
:10139000E803F090E9030091EA031091EB032E15A6
:1013A0003F05400751070CF468C08091EC03909111
:1013B000ED03A091EE03B091EF030097A105B105F5
:1013C000F9F42093E8033093E9034093EA03509340
:1013D000EB038AE090E09093FB038093FA0381E0B3
:1013E00090E0A0E0B0E08093EC039093ED03A09335
:1013F000EE03B093EF0382E295E064EA71E0DCC0B3
:101400008AE090E09093FB038093FA032E193F0942
:10141000400B510B2093EC033093ED034093EE030C
:101420005093EF038091F8039091F903AA2797FD59
:10143000A095BA2F820F931FA41FB51F8093F003AE
:101440009093F103A093F203B093F30382E295E04B
:1014500067EB71E00E9453184091F0035091F10343
:101460006091F2037091F30382E295E00E941919F2
:1014700082E295E064EC71E09FC08AE090E0909396
:10148000FB038093FA038091EC039091ED0390931A
:10149000F9038093F80382E295E066EC71E00E9424
:1014A00053186091F8037091F90382E295E00E946D
:1014B00053198091E0039091E103A091E203B09170
:1014C000E3038093E8039093E903A093EA03B093C6
:1014D000EB037CC08091FA039091FB031816190668
:1014E0000CF056C001979093FB038093FA03209170
:1014F000E0033091E1034091E2035091E3038091D6
:10150000E8039091E903A091EA03B091EB03281B53
:10151000390B4A0B5B0B2093EC033093ED034093A4
:10152000EE035093EF038091F8039091F903AA27FB
:1015300097FDA095BA2F820F931FA41FB51F80930C
:10154000F0039093F103A093F203B093F30382E2CC
:1015500095E067EB71E00E9453184091F0035091C1
:10156000F1036091F2037091F30382E295E00E942F
:10157000191982E295E064EC71E00E9453186091C1
:10158000FA037091FB0382E295E00E94531910C0A8
:101590001092EC031092ED031092EE031092EF0301
:1015A0001092F0031092F1031092F2031092F303E1
:1015B00082E295E061ED71E00E9453186091FA03B8
:1015C0007091FB0382E295E00E9453191F910F91E5
:1015D000FF90EF900895CF92DF92EF92FF920F93DA
:1015E0001F93CF93DF936091E4037091E5038091A3
:1015F000E6039091E7036115710581059105C9F531
:101600006091B2037091B303882777FD8095982F7E
:1016100020E13EE040E050E00E94141C4091B40301
:101620005091B5032CE330E0F9014E9F90014F9F9C
:10163000300D5E9F300D1124442737FD4095542F07
:10164000260F371F481F591F8091B6039091B7038B
:10165000AA2797FDA095BA2F820F931FA41FB51F2D
:101660008093E4039093E503A093E603B093E7032C
:10167000B5C02091E0033091E1034091E203509125
:10168000E30362177307840795070CF070C06901C4
:10169000C61AD70AC091EA02D091EB028091DE030C
:1016A0009091DF03C81BD90B82E295E06CED71E0ED
:1016B0000E94531882E295E0B6010E944B1982E223
:1016C00095E068EE71E00E94531882E295E0BE0159
:1016D0000E945319FDE3CF16D1040CF448C0BE019B
:1016E000882777FD8095982F0E94FD1A7B018C0139
:1016F000B601882777FD8095982F0E94FD1A9B01DF
:10170000AC01C801B7010E94621A6093F4037093A0
:10171000F5038093F6039093F70382E295E066EF7A
:1017200071E00E9453184091F4035091F5036091C9
:10173000F6037091F70382E295E00E94EE19809122
:10174000E0039091E103A091E203B091E303809361
:10175000E4039093E503A093E603B093E70380913D
:10176000EA029091EB029093DF038093DE032091D5
:10177000E0033091E1034091E2035091E303809153
:10178000E4039091E503A091E603B091E7032817E5
:1017900039074A075B0784F42093E4033093E50399
:1017A0004093E6035093E7038091EA029091EB02A5
:1017B0009093DF038093DE0382E295E063E072E0C2
:1017C0000E9453184091E0035091E1036091E203BD
:1017D0007091E30382E295E00E944019DF91CF917E
:1017E0001F910F91FF90EF90DF90CF900895CF92CF
:1017F000DF92EF92FF920F931F93DF93CF93CDB7BA
:10180000DEB72C970FB6F894DEBF0FBECDBF7C01BC
:101810008FE793E00E94A5088FE793E0B7010E944D
:1018200084088FE793E064E441E00E944F0868EE8B
:1018300073E080E090E00E9411158FE793E00E9432
:10184000A5088FE793E0B7010E9484088FE793E033
:101850006EEB40E00E944F088E010F5F1F4F5AE071
:10186000C52ED12CCC0EDD1E8FE793E00E94F80729
:10187000D8018D938D01AC15BD05B1F79A8180E03B
:101880002981FC01E20FF11D9F01E070F078309793
:1018900019F0309521953F4FD7018C91803151F44B
:1018A00082E390E0289FB001299F700D389F700D52
:1018B00011240EC0C90164E070E00E94331CC9010C
:1018C000880F991F820F931F880F991F680F791F28
:1018D000CB0164E670E00E94331C9B01EF2B19F0F2
:1018E000309521953F4FC9012C960FB6F894DEBF75
:1018F0000FBECDBFCF91DF911F910F91FF90EF9061
:10190000DF90CF900895CF93DF93EC01DC010D9031
:101910000020E9F71197A81BB90B20E030E060E048
:1019200070E00DC0FE01E20FF31F8081482F50E0F0
:101930004432510511F0642775272F5F3F4F2A1756
:101940003B0780F3CB01DF91CF9108953F924F92F7
:101950005F926F927F928F929F92AF92BF92CF923F
:10196000DF92EF92FF920F931F93DF93CF93CDB748
:10197000DEB760970FB6F894DEBF0FBECDBF3C0157
:101980005A016B01822E302E99240F2EF0E0EF2E9B
:10199000F0E0FF2EF0E00F2FFFE31F2FF02D0BC024
:1019A000C801B70120E030E040E251E40E94621A31
:1019B0007B018C019394981498F31982F30110829F
:1019C000C601B50120E030E040E050E00E945E1A20
:1019D00088234CF4C3016AE072E00E949800D7FAB1
:1019E000D094D7F8D094C601B501A80197010E9400
:1019F000FA197B018C010E94CA1ADC01CB012C016F
:101A0000BE016F5F7F4F4AE050E00E949F00BC0123
:101A1000C3010E948D00882009F478C0C3016DE0E5
:101A200072E00E948D00982C61E0A62EB12CC12C92
:101A3000D12CC601B5012AE030E040E050E00E9420
:101A4000141C5B016C019A94A1F7C801B70120E056
:101A500030E040E050E00E94AD1B9201442737FD8A
:101A60004095542F88234CF0CA01B9010E94FD1AF9
:101A70009B01AC01C801B70106C0CA01B9010E94AF
:101A8000FD1AA80197010E94F9197B018C01C6017A
:101A9000B5010E94FB1A9B01AC01C801B7010E946D
:101AA000B11B0E94CF1AF62E072F182D11502F2D83
:101AB000372F482F592FC901DA01BC01CD0101C0D0
:101AC00011502AE030E040E050E00E94461CC9017D
:101AD000DA01BC01CD01611571058105910581F720
:101AE00006C0C30160E172E00E948D001150112315
:101AF000C1F78F2D902FBE016F5F7F4F4AE050E0FE
:101B00000E949F00BC01C3010E948D00332041F15F
:101B1000D3010D900020E9F71197A619B709832D7D
:101B200090E08A179B07E0F0932D9A1B9E012F5F90
:101B30003F4FF90140E201C041938E2F821B89176C
:101B4000D8F38E010F5F1F4FF801E90FF11D1082CE
:101B5000C801B3010E948D00C301B8010E94980022
:101B6000C30160960FB6F894DEBF0FBECDBFCF9114
:101B7000DF911F910F91FF90EF90DF90CF90BF907A
:101B8000AF909F908F907F906F905F904F903F901D
:101B90000895892B59F084E061E00E94C11583E02B
:101BA00060E00E94C1158DE060E00AC083E061E062
:101BB0000E94C11584E060E00E94C1158DE061E0E3
:101BC0000E94C11586EB9EE40E943B150895FF928A
:101BD0000F931F93CF93DF93F82E80E090E00E9445
:101BE000C90D00E010E0CF2DDD27C7FDD095C0FF67
:101BF00003C081E090E002C080E090E00E94C90D47
:101C00000F5F1F4F0830110521F0D595C795FC2EA9
:101C1000EACF81E090E00E94C90DDF91CF911F9142
:101C20000F91FF900895CF93DF93FC018081EF0126
:101C300003C00E94E70D888121968823D1F7DF91A8
:101C4000CF9108952F923F924F925F926F927F9221
:101C50008F929F92AF92BF92CF92DF92EF92FF92BC
:101C60000F931F93CF93DF93C2E1D4E0E1E02E2ED8
:101C7000312CB4C382E295E00E94A717682F84E15B
:101C800093E00E94F906882309F4A8C38091A20377
:101C90009091A303A091A403B091A5038F5F9F4FE0
:101CA000AF4FBF4F09F49AC380911C0390911D035D
:101CB000A0911E03B0911F038093A6039093A703E6
:101CC000A093A803B093A9038091140390911503E6
:101CD000A0911603B09117038093AA039093AB03CE
:101CE000A093AC03B093AD0380914C0390914D034E
:101CF000A0914E03B0914F038F5F9F4FAF4FBF4FE7
:101D000029F42FEF3FEF4FEF5FEF10C00E94031554
:101D10009B01AC0180914C0390914D03A0914E0327
:101D2000B0914F03281B390B4A0B5B0B2093AE037A
:101D30003093AF034093B0035093B103E090AA03F4
:101D4000F090AB030091AC031091AD03C801B70153
:101D500020E432E44FE050E00E94461C39014A0181
:101D60003093B3032093B203882477FC8094982C9B
:101D7000C401B30120EC3DEB40EF5FEF0E94141C67
:101D80005B016C01E60EF71E081F191FC801B701A1
:101D900020E137E240E050E00E94461C29013093E8
:101DA000B5032093B4038091AA039091AB038A0DED
:101DB0009B1D40EF58ED449E9001459E300D549E72
:101DC000300D1124820F931F64E670E00E94331CD3
:101DD0005B017093B7036093B603E0902C03F0901F
:101DE0002D0300912E0310912F0360912403709115
:101DF000250380912603909127030E94FD1A20E07D
:101E000030E543EC57E40E94621A609396037093A6
:101E100097038093980390939903C801B7010E9498
:101E2000FD1A20E030E543EC57E40E94621A60930B
:101E30009A0370939B0380939C0390939D036091FE
:101E400034037091350380913603909137030E94DB
:101E5000FD1A20E030E048EC52E40E94621A6093E0
:101E60009E0370939F038093A0039093A1030E940D
:101E7000CA1A6093EA027093EB028093EC0290938B
:101E8000ED0210920D0410920C048CE390E0489E39
:101E90007001499EF00C589EF00C11240027F7FCAD
:101EA0000095102FC401B30120E13EE040E050E076
:101EB0000E94141CE60EF71E081F191FCC24B7FC45
:101EC000C094DC2CEA0CFB1C0C1D1D1DE092E003F1
:101ED000F092E1030093E2031093E3030E94EB0A04
:101EE0000E9489098091040490910504892BD1F402
:101EF0008091F0039091F103A091F203B091F3036C
:101F000089559240A040B0406CF0809100039091C0
:101F100001031816190634F43092050420920404C3
:101F20000E947D098091040490910504892B91F50C
:101F30006091F4037091F5038091F6039091F7039B
:101F400020E030E040EA50EC0E945E1A882314F54D
:101F5000809100039091010318161906DCF480911A
:101F6000EE029091EF02823091057CF44AE050E05D
:101F70005093EF024093EE0282E090E090930504CC
:101F8000809304040E947D0905C001979093EF029D
:101F90008093EE028091040490910504892B11F541
:101FA00060919603709197038091980390919903A3
:101FB00020E030E048E452E40E945E1A882394F462
:101FC00080910A0490910B04892B61F4A3E0B0E0A6
:101FD000B0930504A093040430920B0420920A04E9
:101FE0000E947D098091040490910504892B09F0D9
:101FF0003BC08091EA029091EB02A091EC02B0917B
:10200000ED02853F21E0920720E0A20720E0B20721
:102010005CF188589341A040B04034F56091F403DE
:102020007091F5038091F6039091F70320E030E082
:1020300040EC5FE30E945E1A8823B4F48091FC03B5
:102040009091FD038B3091054CF044E050E05093AB
:102050000504409304040E947D090AC001969093F0
:10206000FD038093FC0304C01092FD031092FC0357
:102070008091040490910504181619060CF07EC096
:102080000091060410910704B801882777FD809518
:10209000982F0E94FD1A28EB3EE145E85EE30E947E
:1020A000B11B60930E0470930F04809310049093FF
:1020B00011040E94CA1A2091080430910904260FC5
:1020C000371F309309042093080482E295E0B80199
:1020D0000E944B1982E295E063E172E00E9453187E
:1020E00040910E0450910F046091100470911104FE
:1020F00082E295E00E94EA1982E295E063E172E0F3
:102100000E945318609108047091090482E295E0DE
:102110000E9453191092070410920604809104043F
:1021200090910504049719F489E190E002C084E6D7
:1021300090E0909303038093020320910804309170
:10214000090480910203909103032817390714F0C2
:102150000E94590960910E0470910F04809110043F
:10216000909111040E94CA1A20910003309101033A
:10217000261B370B30930103209300034091F40397
:102180005091F5036091F6037091F70380ED93E0B1
:1021900021E000E00E94A60C409196035091970325
:1021A000609198037091990388EB93E024E00E947A
:1021B000A60C40919A0350919B0360919C037091EF
:1021C0009D0384EC93E024E00E94A60C64E670E09A
:1021D00080E090E00E94111580EF92E00E94F70BE2
:1021E0009093FF038093FE0364E670E080E090E04C
:1021F0000E94111588EF92E00E94F70B9093010462
:102200008093000464E670E080E090E00E94111585
:102210000E944D0920915C0330915D033093DD03F2
:102220002093DC03ADB7BEB798970FB6F894BEBF46
:102230000FBEADBFEDB7FEB731961296DC93CE93CD
:10224000119745E152E0538342838091920390912C
:102250009303958384838091B2039091B303978312
:1022600086838091B4039091B50391878087809194
:10227000B6039091B7039387828788EB93E09587A5
:102280008487A4ECB3E0B787A6878091EA02909197
:10229000EB02A091EC02B091ED02808B918BA28BAE
:1022A000B38B358B248B20ED33E0378B268B8091DD
:1022B000FA039091FB03918F808F8091EC039091B2
:1022C000ED03A091EE03B091EF03828F938FA48F63
:1022D000B58F8091FE039091FF03978F868F809139
:1022E00000049091010491A380A380910204909135
:1022F000030493A382A3809100039091010395A30B
:1023000084A3809104049091050497A386A30E945E
:10231000C0009093900480938F044DB75EB7485DE2
:102320005F4F0FB6F8945EBF0FBE4DBF97FD47C01D
:10233000CE010E94830C00D000D000D0EDB7FEB7D4
:1023400031962AE834E0ADB7BEB712963C932E938F
:1023500011974FE452E053834283958384830E9414
:10236000C00080938F049093900400D0EDB7FEB727
:102370003196ADB7BEB71296DC93CE93119726E592
:1023800032E033832283D583C4834AE854E0578301
:1023900046830E94C00080938F04909390048DB771
:1023A0009EB708960FB6F8949EBF0FBE8DBFCE01A4
:1023B0000E94130E82E295E0BE010E947218809185
:1023C00092039091930301969093930380939203C9
:1023D00064E670E080E090E00E94111582E295E0F2
:1023E0000E949317882309F045CC80919403909123
:1023F0009503019690939503809394036AE070E0AF
:1024000080E090E00E9411158091DC039091DD0343
:102410001816190634F48336910519F08DE061E041
:1024200002C08DE060E00E94C115809194039091FC
:102430009503895E93400CF4E8C180EF92E00E941E
:10244000F70B9093FF038093FE0364E670E080E057
:1024500090E00E94111588EF92E00E94F70B909394
:1024600001048093000464E670E080E090E00E9444
:1024700011150E944D0920915C0330915D0330934A
:10248000DD032093DC0380910C0490910D040B97E5
:102490000CF4DEC08091040490910504181619060E
:1024A0000CF0D6C00E9459092DB73EB726523040D5
:1024B0000FB6F8943EBF0FBE2DBFEDB7FEB73196F5
:1024C000C2E1D4E0ADB7BEB71296DC93CE931197BC
:1024D0008BE592E0938382838091B2039091B30362
:1024E000958384838091B4039091B5039783868309
:1024F0008091B6039091B7039187808788EB93E032
:102500009387828784EC93E0958784878091EA02A1
:102510009091EB02A091EC02B091ED028687978733
:10252000A08BB18B8091DC039091DD03938B828B28
:1025300080ED93E0958B848B8091FA039091FB035F
:10254000978B868B8091EC039091ED03A091EE0325
:10255000B091EF03808F918FA28FB38F8091FE0394
:102560009091FF03958F848F8091000490910104D6
:10257000978F868F809102049091030491A380A38A
:10258000809100039091010393A382A3809104049E
:102590009091050495A384A30E94C0009093900499
:1025A00080938F044DB75EB74A5D5F4F0FB6F894C6
:1025B0005EBF0FBE4DBF97FD46C0CE010E94830C8B
:1025C00000D000D000D0EDB7FEB731960AE814E095
:1025D000ADB7BEB712961C930E9311972FE432E05D
:1025E00033832283958384830E94C00080938F0469
:1025F0009093900400D0EDB7FEB73196ADB7BEB75B
:102600001296DC93CE93119786E592E093838283B2
:10261000D583C483178306830E94C00080938F04F0
:10262000909390042DB73EB7285F3F4F0FB6F894B4
:102630003EBF0FBE2DBFCE010E94130E82E295E079
:10264000BE010E94721810920D0410920C04CBC0AF
:102650004DB75EB7465250400FB6F8945EBF0FBEFE
:102660004DBFEDB7FEB73196C2E1D4E0ADB7BEB70E
:102670001296DC93CE9311978AEA92E09383828339
:102680008091B2039091B303958384838091B403C6
:102690009091B503978386838091B6039091B70399
:1026A0009187808788EB93E09387828784EC93E01F
:1026B000958784878091EA029091EB02A091EC02C9
:1026C000B091ED0286879787A08BB18B338B228BDD
:1026D00080ED93E0958B848B8091FA039091FB03BE
:1026E000978B868B8091EC039091ED03A091EE0384
:1026F000B091EF03808F918FA28FB38F8091FE03F3
:102700009091FF03958F848F809100049091010434
:10271000978F868F809102049091030491A380A3E8
:10272000809100039091010393A382A380910404FC
:102730009091050495A384A30E94C00090939004F7
:1027400080938F044DB75EB74A5D5F4F0FB6F89424
:102750005EBF0FBE4DBF97FD46C0CE010E94830CE9
:1027600000D000D000D0EDB7FEB731960AE814E0F3
:10277000ADB7BEB712961C930E9311972FE432E0BB
:1027800033832283958384830E94C00080938F04C7
:102790009093900400D0EDB7FEB73196ADB7BEB7B9
:1027A0001296DC93CE93119786E592E09383828311
:1027B000D583C483178306830E94C00080938F044F
:1027C000909390042DB73EB7285F3F4F0FB6F89413
:1027D0003EBF0FBE2DBFCE010E94130E82E295E0D8
:1027E000BE010E947218109295031092940360919A
:1027F0000C0470910D046F5F7F4F70930D04609314
:102800000C0482E295E00E945319DF91CF911F9151
:102810000F91FF90EF90DF90CF90BF90AF909F907F
:102820008F907F906F905F904F903F902F90089582
:102830000E9449150E94F3080E94220EFDCF8230AB
:1028400000F5E82FF0E0EE0FFF1FEF56FB4F71830E
:102850006083882319F08130A1F408C08091690059
:102860008C7F842B80936900E89A08958091690099
:10287000440F551F440F551F837F842B809369009D
:10288000E99A0895823080F4882319F0813021F488
:1028900002C0E89801C0E998E82FF0E0EE0FFF1FB2
:1028A000EF56FB4F1182108208951F920F920FB6C0
:1028B0000F9211242F933F934F935F936F937F93C6
:1028C0008F939F93AF93BF93EF93FF938091910466
:1028D00090919204892B29F0E0919104F091920457
:1028E0000995FF91EF91BF91AF919F918F917F914A
:1028F0006F915F914F913F912F910F900FBE0F906D
:102900001F9018951F920F920FB60F9211242F93BC
:102910003F934F935F936F937F938F939F93AF9367
:10292000BF93EF93FF938091930490919404892B2C
:1029300029F0E0919304F09194040995FF91EF91AF
:10294000BF91AF919F918F917F916F915F914F91C7
:102950003F912F910F900FBE0F901F9018951F92CF
:102960000F920FB60F9211242F933F934F935F93C3
:102970006F937F938F939F93AF93BF93209199040D
:1029800030919A0440919B0450919C0470919D0455
:10299000DA01C9010296A11DB11D672F6A5F6D376B
:1029A00030F06D57DA01C9010396A11DB11D609386
:1029B0009D048093990490939A04A0939B04B093F0
:1029C0009C048091950490919604A0919704B091F5
:1029D00098040196A11DB11D8093950490939604CF
:1029E000A0939704B0939804BF91AF919F918F915A
:1029F0007F916F915F914F913F912F910F900FBEFB
:102A00000F901F9018958FB7F894209199043091EA
:102A10009A0440919B0450919C048FBFB901CA0154
:102A20000895EF92FF920F931F937B018C018FB754
:102A3000F8944091990450919A0460919B0470918C
:102A40009C048FBF2FB7F8948091990490919A04B9
:102A5000A0919B04B0919C042FBF841B950BA60BE7
:102A6000B70BE816F9060A071B0760F71F910F91CD
:102A7000FF90EF900895019759F0019749F0FC01FC
:102A8000EE0FFF1F31978FB7F8943197F1F78FBF93
:102A90000895789484B5826084BD84B5816084BDD6
:102AA00085B5826085BD85B5816085BDEEE6F0E0C7
:102AB000808181608083E1E8F0E0808182608083B2
:102AC000808181608083E0E8F0E0808181608083A4
:102AD000E1EBF0E0808184608083E0EBF0E08081D6
:102AE00081608083EAE7F0E0808184608083808178
:102AF0008260808380818160808380818068808320
:102B00001092C10008958F70909104039295990FCF
:102B1000990F907C982B90937C0080917A00806430
:102B200080937A0080917A0086FDFCCF2091780016
:102B300040917900942F80E030E0282B392BC90197
:102B40000895282F30E0C90186569F4FFC019491CB
:102B50002A573F4FF9018491882391F0E82FF0E044
:102B6000EE0FFF1FE859FF4FA591B491662329F49A
:102B70008C91909589238C9308958C91892B8C93BB
:102B80000895482F50E0CA0182559F4FFC012491BF
:102B9000CA0186569F4FFC0194914A575F4FFA0134
:102BA00034913323D1F1222331F1233021F4809168
:102BB00080008F7705C0243031F4809180008F7DB4
:102BC0008093800018C0213019F484B58F7704C039
:102BD000223021F484B58F7D84BD0DC0263021F4D0
:102BE0008091B0008F7705C0273029F48091B00024
:102BF0008F7D8093B000E32FF0E0EE0FFF1FEE58C3
:102C0000FF4FA591B491662329F48C919095892367
:102C10008C9308958C91892B8C930895682F70E084
:102C2000CB0182559F4FFC012491CB0186569F4FCB
:102C3000FC0144916A577F4FFB019491992319F449
:102C400020E030E038C0222331F1233021F480919C
:102C500080008F7705C0243031F4809180008F7D13
:102C60008093800018C0213019F484B58F7704C098
:102C7000223021F484B58F7D84BD0DC0263021F42F
:102C80008091B0008F7705C0273029F48091B00083
:102C90008F7D8093B000892F90E0880F991F845812
:102CA0009F4FFC01A591B4918C9120E030E08423EA
:102CB00011F021E030E0C90108951F920F920FB684
:102CC0000F9211242F933F934F935F936F937F93B2
:102CD0008F939F93AF93BF93EF93FF934091C60061
:102CE000E0911E05F0911F05CF01019660E870E0AC
:102CF0000E94331C9C01809120059091210528178A
:102D0000390739F0E256FB4F408330931F0520937B
:102D10001E05FF91EF91BF91AF919F918F917F9190
:102D20006F915F914F913F912F910F900FBE0F9038
:102D30001F9018955F926F927F928F929F92AF92A1
:102D4000BF92CF92DF92EF92FF920F931F93CF9398
:102D5000DF93EC013A014B01413281EA580787E0E9
:102D6000680780E078070CF07FC060E472E48FE0D1
:102D700090E0A40193010E94681C21503040404023
:102D80005040CA01B90122E030E040E050E00E942A
:102D9000681C59016A01A60195012095309540955E
:102DA000509594E0220F331F441F551F9A95D1F779
:102DB00060E072E18AE790E00E94681CCA01B901F4
:102DC0002FEF30E040E050E00E94141CA40193017A
:102DD0000E94681CC90181509F4F181619061CF4E7
:102DE000522E5A9403C055245394521A60E874E842
:102DF0008EE190E0A40193010E94681C21503040B4
:102E000040405040CA01B90122E030E040E050E0CB
:102E10000E94681C209530954095509583E0220FC4
:102E2000331F441F551F8A95D1F760E072E18AE78E
:102E300090E00E94681CCA01B9012FEF30E040E029
:102E400050E00E94141CA40193010E94681CC90157
:102E500081509F4F181619061CF4822F815002C012
:102E600081E0821B851500F5E885F98581E090E019
:102E70000A8802C0880F991F0A94E2F7808360E8ED
:102E800074E88EE190E0A40193010E94681C215037
:102E9000304040405040CA01B90122E030E040E0FB
:102EA00050E00E94681C04C0E885F98510829501F5
:102EB000EC81FD813083EE81FF812083EA85FB85F3
:102EC000208141E050E0CA010E8402C0880F991FA2
:102ED0000A94E2F7282B2083EA85FB852081CA012A
:102EE0000F8402C0880F991F0A94E2F7282B2083D1
:102EF000EA85FB858081088802C0440F551F0A942B
:102F0000E2F7842B8083DF91CF911F910F91FF9087
:102F1000EF90DF90CF90BF90AF909F908F907F9079
:102F20006F905F900895DC011296ED91FC911397DC
:102F3000E058FF4F8191919180589F4F20813181BE
:102F4000821B930B60E870E00E94331C0895CF93BE
:102F5000DF93DC011296ED91FC911397EF01CE57B0
:102F6000DF4F48815981E058FF4F80819181E058BF
:102F7000F0408417950719F42FEF3FEF0CC0E40FD2
:102F8000F51F2081CA01019660E870E00E94331CA1
:102F90009983888330E0C901DF91CF910895FC01C6
:102FA000A085B18521898C9190E0022E02C0959573
:102FB00087950A94E2F780FFF6CF0484F585E02D2B
:102FC000608308958DE093E090932305809322051C
:102FD0008EE994E0909325058093240585EC90E09C
:102FE000909327058093260584EC90E09093290523
:102FF0008093280580EC90E090932B0580932A0520
:1030000081EC90E090932D0580932C0586EC90E068
:1030100090932F0580932E0584E08093300583E004
:103020008093310587E08093320585E080933305F6
:1030300081E08093340508950F931F93CF93DF931E
:103040008C01EB0109C02196D801ED91FC91019012
:10305000F081E02DC801099568816623A1F7DF9111
:10306000CF911F910F910895EF92FF920F931F93AD
:10307000CF93DF938C017B01EA010CC0D7016D91E6
:103080007D01D801ED91FC910190F081E02DC80106
:1030900009952197209791F7DF91CF911F910F917B
:1030A000FF90EF900895DC01ED91FC910280F38197
:1030B000E02D099508950F931F938C01DC01ED918C
:1030C000FC910190F081E02D6DE00995D801ED9122
:1030D000FC910190F081E02DC8016AE009951F91F3
:1030E0000F9108950F931F938C010E945318C801EC
:1030F0000E945B181F910F9108952F923F924F925B
:103100005F926F927F928F929F92AF92BF92CF9277
:10311000DF92EF92FF920F931F93DF93CF93CDB780
:10312000DEB7A0970FB6F894DEBF0FBECDBF1C016F
:103130006A017B01411551056105710549F4DC0106
:10314000ED91FC910190F081E02D60E3099554C070
:10315000882499245401422E55246624772401E0C2
:1031600010E00C0F1D1F080D191DC701B601A301AA
:1031700092010E94461CF80160830894811C911CF6
:10318000A11CB11CC701B601A30192010E94461CFB
:10319000C901DA016C017D01C114D104E104F1041B
:1031A000F1F681E0E82EF12CEC0EFD1EE80CF91C86
:1031B0003E010894611C711CD501C4010197A1094D
:1031C000B1096C01C818D90814C0F601EE0DFF1D35
:1031D00060816A3010F4605D01C0695CD101ED91DD
:1031E000FC910190F081E02DC10109950894E1085E
:1031F000F1086E147F0449F7A0960FB6F894DEBF6D
:103200000FBECDBFCF91DF911F910F91FF90EF9037
:10321000DF90CF90BF90AF909F908F907F906F90F6
:103220005F904F903F902F9008952AE00E947D1864
:103230000895EF92FF920F931F93CF93DF93EC01CA
:103240007A018B0177FF0FC0E881F9810190F0814D
:10325000E02D6DE2099510950095F094E094E11C45
:10326000F11C011D111DCE01B801A7012AE00E9429
:103270007D18DF91CF911F910F91FF90EF900895EE
:103280000F931F938C010E941919C8010E945B18AB
:103290001F910F910895AB01662757FD6095762F1A
:1032A0000E94191908950F931F938C01AB01662793
:1032B00057FD6095762F0E941919C8010E945B186E
:1032C0001F910F9108959F92AF92BF92CF92DF927C
:1032D000EF92FF920F931F93CF93DF93EC017A014C
:1032E0008B01922ECB01BA0120E030E040E050E0AB
:1032F0000E945E1A882364F4E881F9810190F081CC
:10330000E02DCE016DE2099517FB109517F9109588
:1033100020E030E040E05FE3AA240BC0CA01B9011D
:1033200020E030E040E251E40E94621A9B01AC01CF
:10333000A394A91498F3C801B7010E94FA195B017C
:103340006C010E94CF1A7B018C01CE01B801A7014C
:103350000E941519992029F0CE0168EE72E00E94B2
:103360005318C801B7010E94FB1A9B01AC01C601AA
:10337000B5010E94F91920C020E030E040E251E49C
:103380000E94B11B7B018C010E94CA1A5B016C0177
:10339000CC24B7FCC094DC2CCE01B601A5010E9460
:1033A0001919C601B5010E94FD1A9B01AC01C801A3
:1033B000B7010E94F9199A949920F1F6DF91CF9103
:1033C0001F910F91FF90EF90DF90CF90BF90AF9043
:1033D0009F90089522E00E94631908950F931F9310
:1033E0008C010E94EA19C8010E945B181F910F917D
:1033F00008955058BB27AA270ED075C166D130F06A
:103400006BD120F031F49F3F11F41EF45BC10EF438
:10341000E095E7FB51C1E92F77D180F3BA17620736
:1034200073078407950718F071F49EF58FC10EF4A9
:10343000E0950B2EBA2FA02D0B01B90190010C01C4
:10344000CA01A0011124FF27591B99F0593F50F4DC
:10345000503E68F11A16F040A22F232F342F442734
:10346000585FF3CF469537952795A795F04053952C
:10347000C9F77EF41F16BA0B620B730B840BBAF0FC
:103480009150A1F0FF0FBB1F661F771F881FC2F767
:103490000EC0BA0F621F731F841F48F4879577957B
:1034A0006795B795F7959E3F08F0B3CF9395880F32
:1034B00008F09927EE0F979587950895D9D008F4CD
:1034C00081E008950CD00FC107D140F0FED030F05C
:1034D00021F45F3F19F0F0C0511139C1F3C014D18C
:1034E00098F39923C9F35523B1F3951B550BBB27CB
:1034F000AA2762177307840738F09F5F5F4F220F78
:10350000331F441FAA1FA9F333D00E2E3AF0E0E870
:1035100030D091505040E695001CCAF729D0FE2FBC
:1035200027D0660F771F881FBB1F2617370748074E
:10353000AB07B0E809F0BB0B802DBF01FF27935804
:103540005F4F2AF09E3F510568F0B6C000C15F3F53
:10355000ECF3983EDCF3869577956795B795F795EC
:103560009F5FC9F7880F911D9695879597F90895E4
:10357000E1E0660F771F881FBB1F62177307840780
:10358000BA0720F0621B730B840BBA0BEE1F88F78F
:10359000E095089504D06894B111D9C00895BCD0C5
:1035A00088F09F5790F0B92F9927B751A0F0D1F02C
:1035B000660F771F881F991F1AF0BA95C9F712C0B6
:1035C000B13081F0C3D0B1E00895C0C0672F782F2B
:1035D0008827B85F39F0B93FCCF386957795679522
:1035E000B395D9F73EF490958095709561957F4F8E
:1035F0008F4F9F4F0895E89409C097FB3EF4909534
:103600008095709561957F4F8F4F9F4F9923A9F0BB
:10361000F92F96E9BB279395F6958795779567954A
:10362000B795F111F8CFFAF4BB0F11F460FF1BC08E
:103630006F5F7F4F8F4F9F4F16C0882311F096E921
:1036400011C0772321F09EE8872F762F05C06623CF
:1036500071F096E8862F70E060E02AF09A95660F88
:10366000771F881FDAF7880F9695879597F9089541
:10367000990F0008550FAA0BE0E8FEEF1616170683
:10368000E807F907C0F012161306E407F50798F0EB
:10369000621B730B840B950B39F40A2661F0232B04
:1036A000242B252B21F408950A2609F4A140A69580
:1036B0008FEF811D811D089597F99F6780E870E065
:1036C00060E008959FEF80EC089500240A94161698
:1036D000170618060906089500240A941216130600
:1036E000140605060895092E0394000C11F488238E
:1036F00052F0BB0F40F4BF2B11F460FF04C06F5FAA
:103700007F4F8F4F9F4F089557FD9058440F551F7F
:1037100059F05F3F71F04795880F97FB991F61F053
:103720009F3F79F087950895121613061406551FCA
:10373000F2CF4695F1DF08C0161617061806991F36
:10374000F1CF86957105610508940895E894BB272B
:1037500066277727CB0197F908958ADF08F48FEF62
:1037600008950BD0C0CFB1DF28F0B6DF18F0952355
:1037700009F0A2CFA7CF1124EACFC6DFA0F3959F0F
:10378000D1F3950F50E0551F629FF001729FBB2748
:10379000F00DB11D639FAA27F00DB11DAA1F649FF4
:1037A0006627B00DA11D661F829F2227B00DA11DA7
:1037B000621F739FB00DA11D621F839FA00D611D2D
:1037C000221F749F3327A00D611D231F849F600D4E
:1037D000211D822F762F6A2F11249F5750408AF087
:1037E000E1F088234AF0EE0FFF1FBB1F661F771F13
:1037F000881F91505040A9F79E3F510570F05CCF53
:10380000A6CF5F3FECF3983EDCF3869577956795FE
:10381000B795F795E7959F5FC1F7FE2B880F911D30
:103820009695879597F90895629FD001739FF0014F
:10383000829FE00DF11D649FE00DF11D929FF00D40
:10384000839FF00D749FF00D659FF00D9927729F77
:10385000B00DE11DF91F639FB00DE11DF91FBD0102
:10386000CF011124089597FB092E07260AD077FD72
:1038700004D049D006D000201AF4709561957F4F8E
:103880000895F6F7909581959F4F0895A1E21A2E1D
:10389000AA1BBB1BFD010DC0AA1FBB1FEE1FFF1FF4
:1038A000A217B307E407F50720F0A21BB30BE40B44
:1038B000F50B661F771F881F991F1A9469F760958B
:1038C0007095809590959B01AC01BD01CF01089545
:1038D00097FB092E05260ED057FD04D0D7DF0AD05E
:1038E000001C38F450954095309521953F4F4F4F2F
:1038F0005F4F0895F6F790958095709561957F4F8D
:103900008F4F9F4F0895AA1BBB1B51E107C0AA1FF1
:10391000BB1FA617B70710F0A61BB70B881F991F70
:103920005A95A9F780959095BC01CD010895EE0FA9
:10393000FF1F0590F491E02D09942F923F924F9232
:103940005F926F927F928F929F92AF92BF92CF922F
:10395000DF92EF92FF920F931F93CF93DF93CDB738
:10396000DEB7CA1BDB0B0FB6F894DEBF0FBECDBFB0
:1039700009942A88398848885F846E847D848C8481
:103980009B84AA84B984C884DF80EE80FD800C818A
:103990001B81AA81B981CE0FD11D0FB6F894DEBF6D
:0C39A0000FBECDBFED010895F894FFCFDD
:1039AC0047504747410024505542582C34302C473F
:1039BC004C4C2C302C302C302C302A35430D0A003A
:1039CC0024505542582C34302C5A44412C302C3035
:1039DC002C302C302A34340D0A0024505542582CEB
:1039EC0034302C5654472C302C302C302C302A357B
:1039FC00450D0A0024505542582C34302C47535650
:103A0C002C302C302C302C302A35390D0A00245017
:103A1C005542582C34302C4753412C302C302C3000
:103A2C002C302A34450D0A005374617274696E6728
:103A3C002055702E2E2E00466C6F6174696E672EA9
:103A4C002E2E2000537461727420666C6F6174208A
:103A5C0074696D65722000466C6F61742054696DD9
:103A6C00653A20002000526F6C6C6F7665723A20BC
:103A7C00004E6F20466C6F61743A20004469666694
:103A8C0020736563203D20002C204469666620610C
:103A9C006C74203D2000417363656E7472617465B3
:103AAC003A200054696D653A20002D00002E00006C
:103ABC003000002C00242441544C41532C25642C00
:103ACC0025643A25643A25642C25732C25732C2502
:103ADC006C642C25642C25733B25643B256C643B62
:103AEC0025643B25643B25643B25643B2564002A07
:103AFC00253032580A002573257300242441544C78
:103B0C0041532F4E6F204750532F25643A25643A6A
:103B1C0025642F25732F25732F256C642F25642F77
:103B2C0025732F25642F256C642F25642F25642F76
:103B3C0025642F25642F25642F53746F7070696E64
:103B4C00672042616C6C61737400242441544C41B5
:103B5C00532F4E6F204750532F25643A25643A2536
:103B6C00642F25732F25732F256C642F25642F2527
:103B7C00732F25642F256C642F25642F25642F2526
:103B8C00642F25642F2564002E007B0000000A00A2
:103B9C002826F52D020000CC285D262E02000034CC
:103BAC00F4016400010537370500000000CF171C35
:043BBC0018341800A1
:00000001FF
