:100000000C9462000C948A000C948A000C948A0070
:100010000C948A000C948A000C948A000C948A0038
:100020000C948A000C948A000C948A000C948A0028
:100030000C948A000C948A000C948A000C948A0018
:100040000C9481020C948A000C94B4030C948A00E2
:100050000C948A000C948A000C948A000C948A00F8
:100060000C948A000C948A000000000024002700F1
:100070002A0000000000250028002B0000000000DE
:1000800023002600290004040404040404040202DA
:100090000202020203030303030301020408102007
:1000A0004080010204081020010204081020000012
:1000B0000007000201000003040600000000000029
:1000C0000000FD0411241FBECFEFD4E0DEBFCDBF82
:1000D00013E0A0E0B1E0E6E5FCE002C005900D927F
:1000E000A63CB107D9F714E0A6ECB3E001C01D921D
:1000F000AC36B107E1F710E0C4ECD0E004C02297C1
:10010000FE010E942506C23CD107C9F70E947A026F
:100110000C9429060C9400008091030261E00E9477
:1001200067038091050261E00E94670360E570E06B
:1001300080E090E00E94D5028091030260E00E947E
:1001400067038091050260E00E94670360E570E04C
:1001500080E090E00E94D50208958091030261E062
:100160000E9467038091050261E00E94670360EFCF
:1001700070E080E090E00E94D5028091030260E090
:100180000E9467038091050260E00E94670360E5BA
:1001900070E080E090E00E94D50208950F931F93D5
:1001A00009E514E0C80140EC52E160E070E00E9413
:1001B000F103C80160E071E00E949505809103029F
:1001C00061E00E9447038091050261E00E944703BD
:1001D0008091070261E00E9447038091030261E081
:1001E0000E94670360ED77E080E090E00E94D50216
:1001F0008091030260E00E9467031F910F910895B0
:1002000068E070E080E090E00E94D50283EA90E030
:100210000E94FF0208958091030261E00E9467033B
:100220008091050261E00E9467030E9400018091B5
:10023000030260E00E9467038091050260E00E9473
:10024000670308950F931F93CF93DF93682F803236
:1002500029F0EBE5F2E0C0E0D0E006C089E594E0EB
:1002600060E20E946E0551C080813B96861709F0BE
:1002700057C089E594E00E946E051092C903109260
:10028000C8038BE090E0C89F8001C99F100DD89FE4
:10029000100D112434C01092CB031092CA0320E831
:1002A0001FC0C22FD0E0EE0FFF1FE00FF11FE55A75
:1002B000FD4F818192818C239D23892B19F00E940F
:1002C0000B0102C00E940001D595C7952C2F80918B
:1002D000CA039091CB0301969093CB038093CA03FA
:1002E0008091CA039091CB03E091C803F091C903B8
:1002F0000697BCF23196F093C903E093C80380914E
:10030000C8039091C903059734F262E770E080E07A
:1003100090E00E94D5028AE191E00E94FF020BC0AA
:100320002196C032D10509F09FCF89E594E06CE0B9
:1003300071E00E947605DF91CF911F910F91089592
:10034000CF93DF93EC0103C021960E9422018881A4
:100350008823D1F789E594E06EE071E00E9495056D
:10036000DF91CF9108951F93682F803229F0A9E083
:10037000B2E0E0E0F0E00AC089E594E060E20E94CB
:100380006E0560E372E080E090E01CC08C911296F4
:100390008617D9F4EE0FFF1FE75FFD4F118189E546
:1003A00094E00E946E0508C010FF03C00E94AD00DB
:1003B00002C00E948C0016951130B1F760EA70E01F
:1003C00080E090E00E94D5020AC03196E932F10542
:1003D000E9F689E594E06CE071E00E9476051F91F2
:1003E0000895CF93DF93EC0103C021960E94B301DF
:1003F00088818823D1F789E594E06EE071E00E945E
:100400009505DF91CF9108958091C6039091C70320
:10041000843091050CF063C001969093C7038093DC
:10042000C60382309105F1F08330910599F101976F
:1004300009F05FC08091070261E00E94670368EEE7
:1004400073E080E090E00E94D5028FE091E00E948E
:10045000F10168EE73E080E090E00E94D50285E350
:1004600091E02FC08091070261E00E94670368EE6F
:1004700073E080E090E00E94D50289E591E00E945F
:10048000F10168EE73E080E090E00E94D5028AE816
:1004900091E017C08091070261E00E94670368EE57
:1004A00073E080E090E00E94D50289EB91E00E9429
:1004B000F10168EE73E080E090E00E94D50283EEE7
:1004C00091E00E94A0018091070260E00E94670312
:1004D00060E67AEE80E090E00E94D50208951092E6
:1004E000C7031092C60360EA7BEB8DE090E00E94A8
:1004F000D50208950E940D030E94CE000E940402BE
:10050000FDCF1F920F920FB60F9211242F933F939E
:100510004F935F936F937F938F939F93AF93BF930B
:100520002091D0033091D1034091D2035091D30355
:100530007091D403DA01C9010296A11DB11D672F84
:100540006A5F6D3730F06D57DA01C9010396A11D5E
:10055000B11D6093D4038093D0039093D103A093F3
:10056000D203B093D3038091CC039091CD03A0919B
:10057000CE03B091CF030196A11DB11D8093CC0392
:100580009093CD03A093CE03B093CF03BF91AF91CF
:100590009F918F917F916F915F914F913F912F919B
:1005A0000F900FBE0F901F901895EF92FF920F9330
:1005B0001F937B018C018FB7F8944091D003509129
:1005C000D1036091D2037091D3038FBF2FB7F894FA
:1005D0008091D0039091D103A091D203B091D30325
:1005E0002FBF841B950BA60BB70BE816F9060A075D
:1005F0001B0760F71F910F91FF90EF9008950197EF
:1006000059F0019749F0FC01EE0FFF1F31978FB7AA
:10061000F8943197F1F78FBF0895789484B582608C
:1006200084BD84B5816084BD85B5826085BD85B596
:10063000816085BDEEE6F0E0808181608083E1E845
:10064000F0E0808182608083808181608083E0E847
:10065000F0E0808181608083E1EBF0E08081846064
:100660008083E0EBF0E0808181608083EAE7F0E066
:1006700080818460808380818260808380818160CA
:1006800080838081806880831092C1000895282F24
:1006900030E0C90186569F4FFC0194912A573F4F85
:1006A000F9018491882391F0E82FF0E0EE0FFF1F0D
:1006B000E859FF4FA591B491662329F48C91909548
:1006C00089238C9308958C91892B8C930895482FBE
:1006D00050E0CA0182559F4FFC012491CA01865601
:1006E0009F4FFC0194914A575F4FFA013491332395
:1006F000D1F1222331F1233021F4809180008F77D2
:1007000005C0243031F4809180008F7D809380007B
:1007100018C0213019F484B58F7704C0223021F439
:1007200084B58F7D84BD0DC0263021F48091B0004A
:100730008F7705C0273029F48091B0008F7D80939A
:10074000B000E32FF0E0EE0FFF1FEE58FF4FA59132
:10075000B491662329F48C91909589238C93089504
:100760008C91892B8C9308951F920F920FB60F9244
:1007700011242F933F934F935F936F937F938F93A6
:100780009F93AF93BF93EF93FF934091C600E09187
:100790005504F0915604CF01019660E870E00E9484
:1007A000BF059C0180915704909158042817390780
:1007B00039F0EB52FC4F408330935604209355049C
:1007C000FF91EF91BF91AF919F918F917F916F9129
:1007D0005F914F913F912F910F900FBE0F901F90FF
:1007E00018955F926F927F928F929F92AF92BF9275
:1007F000CF92DF92EF92FF920F931F93CF93DF93ED
:10080000EC013A014B01413281EA580787E0680761
:1008100080E078070CF07FC060E472E48FE090E045
:10082000A40193010E94F405215030404040504003
:10083000CA01B90122E030E040E050E00E94F40536
:1008400059016A01A6019501209530954095509572
:1008500094E0220F331F441F551F9A95D1F760E093
:1008600072E18AE790E00E94F405CA01B9012FEF16
:1008700030E040E050E00E94A005A40193010E94F6
:10088000F405C90181509F4F181619061CF4522E09
:100890005A9403C055245394521A60E874E88EE1C8
:1008A00090E0A40193010E94F405215030404040A3
:1008B0005040CA01B90122E030E040E050E00E941F
:1008C000F405209530954095509583E0220F331F15
:1008D000441F551F8A95D1F760E072E18AE790E0E6
:1008E0000E94F405CA01B9012FEF30E040E050E06A
:1008F0000E94A005A40193010E94F405C901815042
:100900009F4F181619061CF4822F815002C081E0F7
:10091000821B851500F5E885F98581E090E00A885D
:1009200002C0880F991F0A94E2F7808360E874E898
:100930008EE190E0A40193010E94F4052150304023
:1009400040405040CA01B90122E030E040E050E0B0
:100950000E94F40504C0E885F98510829501EC81B8
:10096000FD813083EE81FF812083EA85FB85208134
:1009700041E050E0CA010E8402C0880F991F0A941A
:10098000E2F7282B2083EA85FB852081CA010F84AA
:1009900002C0880F991F0A94E2F7282B2083EA856A
:1009A000FB858081088802C0440F551F0A94E2F736
:1009B000842B8083DF91CF911F910F91FF90EF9057
:1009C000DF90CF90BF90AF909F908F907F906F906F
:1009D0005F900895FC01A085B18521898C9190E0FC
:1009E000022E02C0959587950A94E2F780FFF6CF14
:1009F0000484F585E02D608308958FEB93E0909358
:100A00005A048093590485ED93E090935C0480939D
:100A10005B0485EC90E090935E0480935D0484EC2D
:100A200090E09093600480935F0480EC90E090935A
:100A300062048093610481EC90E09093640480935D
:100A4000630486EC90E0909366048093650484E0F0
:100A50008093670483E08093680487E0809369044F
:100A600085E080936A0481E080936B0408950F937E
:100A70001F93CF93DF938C01EB0109C02196D8011E
:100A8000ED91FC910190F081E02DC80109956881FC
:100A90006623A1F7DF91CF911F910F910895EF92F7
:100AA000FF920F931F93CF93DF938C017B01EA0199
:100AB0000CC0D7016D917D01D801ED91FC910190A1
:100AC000F081E02DC80109952197209791F7DF91DA
:100AD000CF911F910F91FF90EF900895DC01ED9160
:100AE000FC910190F081E02D09950895DC01ED91D4
:100AF000FC910280F381E02D099508950F931F93D7
:100B00008C01DC01ED91FC910190F081E02D6DE014
:100B10000995D801ED91FC910190F081E02DC8017B
:100B20006AE009951F910F9108950F931F938C010F
:100B30000E947605C8010E947E051F910F910895BD
:100B4000629FD001739FF001829FE00DF11D649FB1
:100B5000E00DF11D929FF00D839FF00D749FF00D3D
:100B6000659FF00D9927729FB00DE11DF91F639FDE
:100B7000B00DE11DF91FBD01CF011124089597FBB0
:100B8000092E07260AD077FD04D049D006D00020D0
:100B90001AF4709561957F4F0895F6F790958195B9
:100BA0009F4F0895A1E21A2EAA1BBB1BFD010DC089
:100BB000AA1FBB1FEE1FFF1FA217B307E407F5070D
:100BC00020F0A21BB30BE40BF50B661F771F881FE9
:100BD000991F1A9469F760957095809590959B017F
:100BE000AC01BD01CF01089597FB092E05260ED05B
:100BF00057FD04D0D7DF0AD0001C38F4509540953B
:100C0000309521953F4F4F4F5F4F0895F6F79095E0
:100C10008095709561957F4F8F4F9F4F0895AA1BC8
:100C2000BB1B51E107C0AA1FBB1FA617B70710F0D7
:100C3000A61BB70B881F991F5A95A9F78095909509
:100C4000BC01CD010895EE0FFF1F0590F491E02D3A
:060C50000994F894FFCFA7
:100C56005374617274696E672E2E2E003F00005623
:100C6600565656562C41544C41532C312F332C4852
:100C76004947482C414C5449545544452C42414C13
:100C86004C4F4F4E0056565656562C41544C4153D7
:100C96002C312C484947482C414C5449545544451D
:100CA6002C42414C4C4F4F4E0056565656562C41F0
:100CB600544C41532C322F332C525454592C343328
:100CC600342E3037352C4153434949382C35302C96
:100CD6003335302C302C312E350056565656562C80
:100CE60041544C41532C322C525454592C343334E5
:100CF6002E3037352C4153434949382C35302C3367
:100D060035302C302C312E350056565656562C4141
:100D1600544C41532C332F332C5757572E53504195
:100D260043454E4541522E55532F545241434B4550
:100D3600522F0056565656562C41544C41532C337E
:100D46002C4D364A43582C4D364A43582C4D364A7C
:100D56004358000700030004002E6A2C733F4C2FF3
:100D6600292D61410642114315440945024614479F
:100D76000B481049044A1E4B0D4C124D074E054FA9
:100D86000F5016511B520A53085403550C56185748
:100D96000E5819591D5A13313E323C33383430350A
:100DA60020362137233827392F303F3104000400FD
:100DB6007C0000000000324800640054004C0040F3
:100DC600003344004400540054003C00341C00101E
:100DD6000010007C0010003540005C0054005400F8
:100DE6003400363C0052004A0048003000374400C8
:100DF600240014000C000400386C005A0054005AF9
:100E0600006C003908004A004A002A0038003038D1
:100E160000640054004C0038004178002C00240087
:100E26002C0078004244007C005400540028004303
:100E360038006C004400440028004444007C004410
:100E46000044003800457C0054005400440044002F
:100E56004738006C00440054003400487C00100001
:100E6600100010007C0049000044007C0044000093
:100E7600004A60004000400040007C004C7C00407E
:100E8600004000400040004D7C00080010000800B3
:100E96007C004E7C000400080010007C004F3800E7
:100EA6004400440044003800527C0014001400340E
:100EB60000580053580054005400540024005404B1
:100EC6000004007C0004000400557C004000400043
:100ED60040007C00567C00200010000800040058EA
:100EE600440028001000280044005904000800703F
:100EF60000080004002E4000400000000000000032
:100F06002C8000A00060000000000000000000EA45
:060F16000437054F050041
:00000001FF
