:100000000C9462000C948A000C948A000C948A0070
:100010000C948A000C948A000C948A000C948A0038
:100020000C948A000C948A000C948A000C948A0028
:100030000C948A000C948A000C948A000C948A0018
:100040000C9458050C948A000C948B060C948A002E
:100050000C948A000C948A000C948A000C948A00F8
:100060000C948A000C948A000000000024002700F1
:100070002A0000000000250028002B0000000000DE
:1000800023002600290004040404040404040202DA
:100090000202020203030303030301020408102007
:1000A0004080010204081020010204081020000012
:1000B0000007000201000003040600000000000029
:1000C0000000D40711241FBECFEFD4E0DEBFCDBFA8
:1000D00013E0A0E0B1E0E2E7F2E102C005900D928A
:1000E000A83AB107D9F714E0A8EAB3E001C01D921D
:1000F000AA3CB107E1F710E0C4ECD0E004C02297BD
:10010000FE010E94FC08C23CD107C9F70E945105BC
:100110000C9437090C940000AEE0B0E0E2E9F0E0A6
:100120000C940E090D891E8986E08C831A8309833D
:100130008FEF9FE79E838D839E01275E3F4FCE0109
:1001400001966F89788DA9010E94B0002F813885B2
:10015000020F131FF80110822E96E4E00C942A0976
:10016000ABE0B0E0E6EBF0E00C9400093C012B01C1
:100170005A01FC0117821682838181FD03C06FEF53
:100180007FEFC6C19AE0892E1E010894211C311C04
:10019000F3012381F20123FD859123FF81912F013A
:1001A000882309F4B2C1853239F423FD859123FFF8
:1001B00081912F01853229F490E0B3010E94A302BE
:1001C000E7CF982FFF24EE249924FFE1FF15D0F00C
:1001D0009B3269F09C3228F4903259F0933291F4BA
:1001E0000EC09D3249F0903369F441E024C052E0E2
:1001F000F52A84E0F82A28C098E0F92A25C0E0E131
:10020000FE2A22C0F7FC29C0892F80538A3070F45F
:10021000F6FE05C0989C902C1124980E15C0E89C01
:10022000E02C1124E80EF0E2FF2A0EC09E3229F4E1
:10023000F6FC6BC140E4F42A07C09C3619F450E880
:10024000F52A02C0983649F4F20123FD959123FF67
:1002500091912F01992309F0B8CF892F85548330CC
:1002600018F08052833038F444E050E0A40EB51EFC
:100270005FE359830FC0933631F0933779F09335AC
:1002800009F056C020C0F5018081898342E050E02A
:10029000A40EB51E610101E010E012C0F501C0809E
:1002A000D180F6FC03C06FEF7FEF02C0692D70E0D4
:1002B00042E050E0A40EB51EC6010E9498028C01D7
:1002C0005FE7F52214C0F501C080D180F6FC03C0C1
:1002D0006FEF7FEF02C0692D70E042E050E0A40EA6
:1002E000B51EC6010E948D028C0150E8F52AF3FE6E
:1002F00007C01AC080E290E0B3010E94A302EA9412
:100300008E2D90E008171907A8F30EC0F601F7FC30
:100310008591F7FE81916F0190E0B3010E94A302E5
:10032000E110EA94015010400115110579F7EAC077
:10033000943611F0993669F5F7FE08C0F501208171
:1003400031814281538184E090E00AC0F5018081CF
:1003500091819C01442737FD4095542F82E090E025
:10036000A80EB91E9FE6F92257FF09C05095409587
:10037000309521953F4F4F4F5F4FE0E8FE2ACA016D
:10038000B901A1012AE030E00E94CF02D82ED21894
:1003900040C0953729F41F2D1F7E2AE030E01DC094
:1003A0001F2D197F9F3661F0903720F4983509F0A2
:1003B000ACC00FC0903739F0983709F0A6C004C020
:1003C00028E030E00AC0106114FD146020E130E044
:1003D00004C014FD166020E132E017FF08C0F501EB
:1003E000608171818281938144E050E008C0F50111
:1003F00080819181BC0180E090E042E050E0A40E59
:10040000B51EA1010E94CF02D82ED2188FE7F82E78
:10041000F122F6FE0BC05EEFF522D91438F4F4FE9B
:1004200007C0F2FC05C08FEEF82202C01D2D01C0EE
:10043000192DF4FE0DC0FE01ED0DF11D80818033FC
:1004400019F499EEF92208C01F5FF2FE05C003C03F
:100450008F2D867809F01F5F0F2DF3FC14C0F0FE7E
:100460000FC01E1510F09D2C0BC09D2C9E0C911AD8
:100470001E2D06C080E290E0B3010E94A3021F5F20
:100480001E15C0F304C01E1510F4E11A01C0EE24BD
:1004900004FF0FC080E390E0B3010E94A30202FFBB
:1004A0001DC001FD03C088E790E00EC088E590E024
:1004B0000BC0802F867891F001FF02C08BE201C053
:1004C00080E2F7FC8DE290E0B3010E94A30206C037
:1004D00080E390E0B3010E94A3029A94D914C0F380
:1004E000DA94F101ED0DF11D808190E0B3010E94DD
:1004F000A302DD20A9F706C080E290E0B3010E94CC
:10050000A302EA94EE20C1F743CEF301668177811E
:10051000CB012B96E2E10C941C09FC010590615083
:1005200070400110D8F7809590958E0F9F1F089509
:10053000FC016150704001900110D8F780959095B2
:100540008E0F9F1F08950F931F93CF93DF938C01FE
:10055000EB018B8181FF1BC082FF0DC02E813F818B
:100560008C819D812817390764F4E881F981019312
:10057000F983E88306C0E885F985802F0995892BE2
:1005800031F48E819F8101969F838E8302C00FEF8D
:100590001FEFC801DF91CF911F910F910895FA01CC
:1005A000AA27283051F1203181F1E8946F936E7FB2
:1005B0006E5F7F4F8F4F9F4FAF4FB1E03ED0B4E0A3
:1005C0003CD0670F781F891F9A1FA11D680F791FE4
:1005D0008A1F911DA11D6A0F711D811D911DA11DF5
:1005E00020D009F468943F912AE0269F1124301905
:1005F000305D3193DEF6CF010895462F4770405DA0
:100600004193B3E00FD0C9F7F6CF462F4F70405D4E
:100610004A3318F0495D31FD4052419302D0A9F7A9
:10062000EACFB4E0A6959795879577956795BA95A3
:10063000C9F700976105710508959B01AC010A2E69
:1006400006945795479537952795BA95C9F7620F40
:10065000731F841F951FA01D08958091990161E06B
:100660000E943E0680919B0161E00E943E0660E58B
:1006700070E080E090E00E94AC058091990160E01C
:100680000E943E0680919B0160E00E943E0660E56C
:1006900070E080E090E00E94AC050895809199019F
:1006A00061E00E943E0680919B0161E00E943E064F
:1006B00060EF70E080E090E00E94AC0580919901CD
:1006C00060E00E943E0680919B0160E00E943E0631
:1006D00060E570E080E090E00E94AC05089568E07D
:1006E00070E080E090E00E94AC050895809199014F
:1006F00061E00E943E0680919B0161E00E943E06FF
:100700000E946F038091990160E00E943E068091F3
:100710009B0160E00E943E0608950F931F9307EB34
:1007200014E0C80140EC52E160E070E00E94C806AD
:10073000C80160E071E00E946C088091990161E05D
:100740000E941E0680919B0161E00E941E0680911E
:100750009D0161E00E941E068091990161E00E9466
:100760003E0660ED77E080E090E00E94AC0580916D
:10077000990160E00E943E061F910F9108950F932A
:100780001F93CF93DF93682F803229F0E1EFF1E0E0
:10079000C0E0D0E006C087EB94E060E20E9445082C
:1007A00051C080813B96861709F057C087EB94E0D3
:1007B0000E9445081092AB031092AA038BE090E0D0
:1007C000C89F8001C99F100DD89F100D112434C0FF
:1007D0001092AD031092AC0320E81FC0C22FD0E0EE
:1007E000EE0FFF1FE00FF11FEF50FE4F818192814E
:1007F0008C239D23892B19F00E94760302C00E944E
:100800006F03D595C7952C2F8091AC039091AD03C4
:1008100001969093AD038093AC038091AC039091CB
:10082000AD03E091AA03F091AB030697BCF23196B9
:10083000F093AB03E093AA038091AA039091AB03DA
:10084000059734F262E770E080E090E00E94AC052A
:100850008AE191E00E94D6050BC02196C732D105EE
:1008600009F09FCF87EB94E06CE071E00E944D08A7
:10087000DF91CF911F910F910895CF93DF93EC01FA
:1008800003C021960E94BF0388818823D1F787EB9C
:1008900094E06EE071E00E946C08DF91CF910895C2
:1008A0001F93682F803229F0AFE9B1E0E0E0F0E07B
:1008B0000AC087EB94E060E20E94450860E372E0C2
:1008C00080E090E01CC08C9112968617D9F4EE0F50
:1008D000FF1FE156FE4F118187EB94E00E9445080F
:1008E00008C010FF03C00E944E0302C00E942D03E7
:1008F00016951130B1F760EA70E080E090E00E9458
:10090000AC050AC03196E932F105E9F687EB94E0CF
:100910006CE071E00E944D081F910895CF93DF9322
:10092000EC0103C021960E94500488818823D1F7EE
:1009300087EB94E06EE071E00E946C08DF91CF914C
:100940000895CF93DF938091A8039091A9038430F9
:1009500091050CF090C001969093A9038093A80391
:100960008230910511F183309105D9F1019709F099
:1009700095C080919D0161E00E943E0668EE73E0A3
:1009800080E090E00E94AC0500D000D000D0EDB730
:10099000FEB73196C2EBD3E0ADB7BEB71296DC938B
:1009A000CE9311978FE091E037C080919D0161E077
:1009B0000E943E0668EE73E080E090E00E94AC0585
:1009C00000D000D000D0EDB7FEB73196C2EBD3E037
:1009D000ADB7BEB71296DC93CE93119788E391E042
:1009E0001BC080919D0161E00E943E0668EE73E0AD
:1009F00080E090E00E94AC0500D000D000D0EDB7C0
:100A0000FEB73196C2EBD3E0ADB7BEB71296DC931A
:100A1000CE9311978CE691E0938382838091B0030B
:100A20009091B103958384830E948C009C019093E4
:100A3000AF038093AE038DB79EB706960FB6F894BA
:100A40009EBF0FBE8DBF37FD0CC0CE010E948E042D
:100A500068EE73E080E090E00E94AC05CE010E9459
:100A60003D0480919D0160E00E943E0660E67AEEC2
:100A700080E090E011C01092A9031092A803809129
:100A8000B0039091B10301969093B1038093B003AA
:100A900060EA7BEB8DE090E00E94AC05DF91CF91A6
:100AA00008950E94E4050E948D030E94A104FDCFD9
:100AB0001F920F920FB60F9211242F933F934F93D3
:100AC0005F936F937F938F939F93AF93BF93209187
:100AD0002E0430912F0440913004509131047091D4
:100AE0003204DA01C9010296A11DB11D672F6A5FA8
:100AF0006D3730F06D57DA01C9010396A11DB11DA4
:100B00006093320480932E0490932F04A0933004BA
:100B1000B093310480912A0490912B04A0912C046D
:100B2000B0912D040196A11DB11D80932A049093CC
:100B30002B04A0932C04B0932D04BF91AF919F91EF
:100B40008F917F916F915F914F913F912F910F9076
:100B50000FBE0F901F901895EF92FF920F931F9367
:100B60007B018C018FB7F89440912E0450912F0493
:100B700060913004709131048FBF2FB7F894809149
:100B80002E0490912F04A0913004B09131042FBF16
:100B9000841B950BA60BB70BE816F9060A071B0773
:100BA00060F71F910F91FF90EF900895019759F012
:100BB000019749F0FC01EE0FFF1F31978FB7F894B2
:100BC0003197F1F78FBF0895789484B5826084BD22
:100BD00084B5816084BD85B5826085BD85B5816041
:100BE00085BDEEE6F0E0808181608083E1E8F0E0A1
:100BF000808182608083808181608083E0E8F0E092
:100C0000808181608083E1EBF0E08081846080837B
:100C1000E0EBF0E0808181608083EAE7F0E08081B2
:100C20008460808380818260808380818160808312
:100C30008081806880831092C1000895282F30E061
:100C4000C90186569F4FFC0194912A573F4FF901E5
:100C50008491882391F0E82FF0E0EE0FFF1FE85910
:100C6000FF4FA591B491662329F48C919095892327
:100C70008C9308958C91892B8C930895482F50E084
:100C8000CA0182559F4FFC012491CA0186569F4F8D
:100C9000FC0194914A575F4FFA0134913323D1F10B
:100CA000222331F1233021F4809180008F7705C019
:100CB000243031F4809180008F7D8093800018C0B3
:100CC000213019F484B58F7704C0223021F484B523
:100CD0008F7D84BD0DC0263021F48091B0008F77C8
:100CE00005C0273029F48091B0008F7D8093B0003B
:100CF000E32FF0E0EE0FFF1FEE58FF4FA591B491E8
:100D0000662329F48C91909589238C9308958C9176
:100D1000892B8C9308951F920F920FB60F92112476
:100D20002F933F934F935F936F937F938F939F93F3
:100D3000AF93BF93EF93FF934091C600E091B3044C
:100D4000F091B404CF01019660E870E00E9496082B
:100D50009C018091B5049091B6042817390739F0A9
:100D6000ED5CFB4F40833093B4042093B304FF91B8
:100D7000EF91BF91AF919F918F917F916F915F9113
:100D80004F913F912F910F900FBE0F901F9018958C
:100D90005F926F927F928F929F92AF92BF92CF920B
:100DA000DF92EF92FF920F931F93CF93DF93EC01AB
:100DB0003A014B01413281EA580787E0680780E039
:100DC00078070CF07FC060E472E48FE090E0A4014B
:100DD00093010E94CB082150304040405040CA014E
:100DE000B90122E030E040E050E00E94CB08590118
:100DF0006A01A6019501209530954095509594E0A3
:100E0000220F331F441F551F9A95D1F760E072E1FE
:100E10008AE790E00E94CB08CA01B9012FEF30E0C9
:100E200040E050E00E947708A40193010E94CB08A3
:100E3000C90181509F4F181619061CF4522E5A945E
:100E400003C055245394521A60E874E88EE190E090
:100E5000A40193010E94CB082150304040405040F3
:100E6000CA01B90122E030E040E050E00E94CB0826
:100E7000209530954095509583E0220F331F441FF5
:100E8000551F8A95D1F760E072E18AE790E00E94F1
:100E9000CB08CA01B9012FEF30E040E050E00E94DA
:100EA0007708A40193010E94CB08C90181509F4F8C
:100EB000181619061CF4822F815002C081E0821B93
:100EC000851500F5E885F98581E090E00A8802C083
:100ED000880F991F0A94E2F7808360E874E88EE136
:100EE00090E0A40193010E94CB0821503040404083
:100EF0005040CA01B90122E030E040E050E00E94D9
:100F0000CB0804C0E885F98510829501EC81FD814C
:100F10003083EE81FF812083EA85FB85208141E0DB
:100F200050E0CA010E8402C0880F991F0A94E2F7AC
:100F3000282B2083EA85FB852081CA010F8402C00B
:100F4000880F991F0A94E2F7282B2083EA85FB85F6
:100F50008081088802C0440F551F0A94E2F7842B51
:100F60008083DF91CF911F910F91FF90EF90DF90E1
:100F7000CF90BF90AF909F908F907F906F905F9039
:100F80000895FC01A085B18521898C9190E0022E05
:100F900002C0959587950A94E2F780FFF6CF048406
:100FA000F585E02D6083089582EA93E09093B8047C
:100FB0008093B70483E394E09093BA048093B904D8
:100FC00085EC90E09093BC048093BB0484EC90E0AB
:100FD0009093BE048093BD0480EC90E09093C00495
:100FE0008093BF0481EC90E09093C2048093C1048D
:100FF00086EC90E09093C4048093C30484E08093D3
:10100000C50483E08093C60487E08093C70485E02D
:101010008093C80481E08093C90408950F931F93BF
:10102000CF93DF938C01EB0109C02196D801ED919C
:10103000FC910190F081E02DC8010995688166233B
:10104000A1F7DF91CF911F910F910895EF92FF9239
:101050000F931F93CF93DF938C017B01EA010CC0A8
:10106000D7016D917D01D801ED91FC910190F08146
:10107000E02DC80109952197209791F7DF91CF9135
:101080001F910F91FF90EF900895DC01ED91FC917D
:101090000190F081E02D09950895DC01ED91FC911E
:1010A0000280F381E02D099508950F931F938C0121
:1010B000DC01ED91FC910190F081E02D6DE009954E
:1010C000D801ED91FC910190F081E02DC8016AE01A
:1010D00009951F910F9108950F931F938C010E9402
:1010E0004D08C8010E9455081F910F910895629FF5
:1010F000D001739FF001829FE00DF11D649FE00D10
:10110000F11D929FF00D839FF00D749FF00D659F70
:10111000F00D9927729FB00DE11DF91F639FB00D6F
:10112000E11DF91FBD01CF011124089597FB092E80
:1011300007260AD077FD04D049D006D000201AF443
:10114000709561957F4F0895F6F7909581959F4F23
:101150000895A1E21A2EAA1BBB1BFD010DC0AA1FF8
:10116000BB1FEE1FFF1FA217B307E407F50720F010
:10117000A21BB30BE40BF50B661F771F881F991F8B
:101180001A9469F760957095809590959B01AC01D4
:10119000BD01CF01089597FB092E05260ED057FDFE
:1011A00004D0D7DF0AD0001C38F450954095309514
:1011B00021953F4F4F4F5F4F0895F6F790958095DB
:1011C000709561957F4F8F4F9F4F0895AA1BBB1B52
:1011D00051E107C0AA1FBB1FA617B70710F0A61B37
:1011E000B70B881F991F5A95A9F780959095BC0158
:1011F000CD010895EE0FFF1F0590F491E02D0994A5
:101200002F923F924F925F926F927F928F929F9216
:10121000AF92BF92CF92DF92EF92FF920F931F9304
:10122000CF93DF93CDB7DEB7CA1BDB0B0FB6F894B5
:10123000DEBF0FBECDBF09942A88398848885F84F5
:101240006E847D848C849B84AA84B984C884DF8066
:10125000EE80FD800C811B81AA81B981CE0FD11D4A
:101260000FB6F894DEBF0FBECDBFED010895F89420
:02127000FFCFAE
:101272005374617274696E672E2E2E003F00005601
:10128200565656562C41544C41532C25642C312F22
:10129200332C484947482C414C5449545544452C19
:1012A20042414C4C4F4F4E0056565656562C4154C6
:1012B2004C41532C25642C322F332C525454592C2C
:1012C2003433342E3037352C4153434949382C3589
:1012D200302C3335302C302C312E350056565656A4
:1012E200562C41544C41532C25642C332F332C570C
:1012F20057572E53504143454E4541522E55532F79
:10130200545241434B45522F000700030004002E64
:101312006A2C733F4C2F292D61410642114315441B
:101322000945024614470B481049044A1E4B0D4C0E
:10133200124D074E054F0F5016511B520A530854B7
:1013420003550C5618570E5819591D5A13313E326F
:101352003C333834303520362137233827392F3083
:101362003F31040004007C000000000032480064A9
:101372000054004C00400033440044005400540028
:101382003C00341C00100010007C001000354000AE
:101392005C00540054003400363C0052004A0048BD
:1013A200003000374400240014000C000400386CA4
:1013B200005A0054005A006C003908004A004A00E2
:1013C2002A003800303800640054004C00380041D4
:1013D20078002C0024002C0078004244007C005449
:1013E20000540028004338006C00440044002800E8
:1013F2004444007C00440044003800457C00540012
:10140200540044004400467C00140014000400040C
:10141200004738006C00440054003400487C00103F
:1014220000100010007C0049000044007C004400D1
:1014320000004A60004000400040007C004B7C00FD
:1014420010003800280044004C7C0040004000405E
:101452000040004D7C000800100008007C004E7C1B
:10146200000400080010007C004F380044004400D3
:10147200440038005044007C005400140010005115
:10148200380044006400C400B800527C0014001408
:1014920000340058005358005400540054002400F3
:1014A20054040004007C0004000400557C00400049
:1014B200400040007C00567C002000100008000420
:1014C20000577C0060007C0040007C0058440028EB
:1014D20000100028004400590400080070000800B1
:1014E20004005A4400640054004C0064002E400082
:1014F20040000000000000002C8000A000600000FE
:101502000000002F4000200010000800040000002E
:081512000000C1070E082608C5
:00000001FF
