:100000000C9462000C948A000C948A000C948A0070
:100010000C948A000C948A000C948A000C948A0038
:100020000C948A000C948A000C948A000C948A0028
:100030000C948A000C948A000C948A000C948A0018
:100040000C946D020C948A000C94A0030C948A000A
:100050000C948A000C948A000C948A000C948A00F8
:100060000C948A000C948A000000000024002700F1
:100070002A0000000000250028002B0000000000DE
:1000800023002600290004040404040404040202DA
:100090000202020203030303030301020408102007
:1000A0004080010204081020010204081020000012
:1000B0000007000201000003040600000000000029
:1000C0000000E90411241FBECFEFD4E0DEBFCDBF96
:1000D00013E0A0E0B1E0EEE2FCE002C005900D927A
:1000E000A635B107D9F713E0A6E5B3E001C01D922C
:1000F000AC3FB107E1F710E0C4ECD0E004C02297B8
:10010000FE010E941106C23CD107C9F70E94660297
:100110000C9415060C9400008091B40161E00E94DB
:1001200053038091B60161E00E94530360E570E0E3
:1001300080E090E00E94C1028091B40160E00E94E2
:1001400053038091B60160E00E94530360E570E0C4
:1001500080E090E00E94C10208958091B40161E0C6
:100160000E9453038091B60161E00E94530360EF47
:1001700070E080E090E00E94C1028091B40160E0F4
:100180000E9453038091B60160E00E94530360E532
:1001900070E080E090E00E94C10208950F931F93E9
:1001A00009EE13E0C80140EC52E160E070E00E940B
:1001B000DD03C80160E071E00E9481058091B40117
:1001C00061E00E9433038091B60161E00E94330335
:1001D0008091B80161E00E9433038091B40161E035
:1001E0000E94530360ED77E080E090E00E94C1023E
:1001F0008091B40160E00E9453031F910F91089514
:1002000068E070E080E090E00E94C10283EA90E044
:100210000E94EB0208958091B40161E00E945303B3
:100220008091B60161E00E9453030E940001809119
:10023000B40160E00E9453038091B60160E00E9427
:10024000530308950F931F93CF93DF93682F80324A
:1002500029F0ECE0F2E0C0E0D0E006C089EE93E0E7
:1002600060E20E945A0551C080813B96861709F0D2
:1002700057C089EE93E00E945A05109259031092DC
:1002800058038BE090E0C89F8001C99F100DD89F54
:10029000100D112434C010925B0310925A0320E811
:1002A0001FC0C22FD0E0EE0FFF1FE00FF11FE45F71
:1002B000FD4F818192818C239D23892B19F00E940F
:1002C0000B0102C00E940001D595C7952C2F80918B
:1002D0005A0390915B03019690935B0380935A03BA
:1002E00080915A0390915B03E0915803F091590378
:1002F0000697BCF23196F0935903E093580380912E
:10030000580390915903059734F262E770E080E05A
:1003100090E00E94C1028AE191E00E94EB020BC0D2
:100320002196CD31D10509F09FCF89EE93E06CE0A5
:1003300071E00E946205DF91CF911F910F910895A6
:10034000CF93DF93EC0103C021960E9422018881A4
:100350008823D1F789EE93E06EE071E00E94810579
:10036000DF91CF9108951F93682F803229F0AAEB77
:10037000B1E0E0E0F0E00AC089EE93E060E20E94C4
:100380005A0560E372E080E090E01CC08C91129608
:100390008617D9F4EE0FFF1FE654FE4F118189EE48
:1003A00093E00E945A0508C010FF03C00E94AD00F0
:1003B00002C00E948C0016951130B1F760EA70E01F
:1003C00080E090E00E94C1020AC03196E932F10556
:1003D000E9F689EE93E06CE071E00E9462051F91FE
:1003E0000895CF93DF93EC0103C021960E94B301DF
:1003F00088818823D1F789EE93E06EE071E00E9456
:100400008105DF91CF910895809156039091570314
:10041000843091050CF04FC0019690935703809360
:10042000560382309105A1F083309105F9F00197D0
:1004300009F04BC08091B80161E00E94530368EE5F
:1004400073E080E090E00E94C1028FE091E01BC069
:100450008091B80161E00E94530368EE73E080E090
:1004600090E00E94C10289E591E00DC08091B80141
:1004700061E00E94530368EE73E080E090E00E9428
:10048000C1028AE891E00E94F10168EE73E080E029
:1004900090E00E94C10285E391E00E94A00180915A
:1004A000B80160E00E94530360E67AEE80E090E0DD
:1004B0000E94C1020895109257031092560360EAF9
:1004C0007BEB8DE090E00E94C10208950E94F9024A
:1004D0000E94CE000E940402FDCF1F920F920FB621
:1004E0000F9211242F933F934F935F936F937F93BA
:1004F0008F939F93AF93BF932091600330916103DB
:10050000409162035091630370916403DA01C90161
:100510000296A11DB11D672F6A5F6D3730F06D57D0
:10052000DA01C9010396A11DB11D60936403809394
:10053000600390936103A0936203B093630380917F
:100540005C0390915D03A0915E03B0915F030196FF
:10055000A11DB11D80935C0390935D03A0935E0386
:10056000B0935F03BF91AF919F918F917F916F91F6
:100570005F914F913F912F910F900FBE0F901F9061
:100580001895EF92FF920F931F937B018C018FB709
:10059000F8944091600350916103609162037091FF
:1005A00063038FBF2FB7F89480916003909161032C
:1005B000A0916203B09163032FBF841B950BA60B20
:1005C000B70BE816F9060A071B0760F71F910F9192
:1005D000FF90EF900895019759F0019749F0FC01C1
:1005E000EE0FFF1F31978FB7F8943197F1F78FBF58
:1005F0000895789484B5826084BD84B5816084BD9B
:1006000085B5826085BD85B5816085BDEEE6F0E08B
:10061000808181608083E1E8F0E080818260808376
:10062000808181608083E0E8F0E080818160808368
:10063000E1EBF0E0808184608083E0EBF0E080819A
:1006400081608083EAE7F0E080818460808380813C
:1006500082608083808181608083808180688083E4
:100660001092C1000895282F30E0C90186569F4F8F
:10067000FC0194912A573F4FF9018491882391F00E
:10068000E82FF0E0EE0FFF1FE859FF4FA591B4915E
:10069000662329F48C91909589238C9308958C91ED
:1006A000892B8C930895482F50E0CA0182559F4FA3
:1006B000FC012491CA0186569F4FFC0194914A5730
:1006C0005F4FFA0134913323D1F1222331F12330EA
:1006D00021F4809180008F7705C0243031F480911F
:1006E00080008F7D8093800018C0213019F484B57C
:1006F0008F7704C0223021F484B58F7D84BD0DC076
:10070000263021F48091B0008F7705C0273029F47E
:100710008091B0008F7D8093B000E32FF0E0EE0F6A
:10072000FF1FEE58FF4FA591B491662329F48C91D9
:10073000909589238C9308958C91892B8C9308959F
:100740001F920F920FB60F9211242F933F934F9346
:100750005F936F937F938F939F93AF93BF93EF9329
:10076000FF934091C600E091E503F091E603CF01CD
:10077000019660E870E00E94AB059C018091E70360
:100780009091E8032817390739F0EB59FC4F408363
:100790003093E6032093E503FF91EF91BF91AF9172
:1007A0009F918F917F916F915F914F913F912F9189
:1007B0000F900FBE0F901F9018955F926F927F92CF
:1007C0008F929F92AF92BF92CF92DF92EF92FF9261
:1007D0000F931F93CF93DF93EC013A014B0141320A
:1007E00081EA580787E0680780E078070CF07FC04F
:1007F00060E472E48FE090E0A40193010E94E005C0
:100800002150304040405040CA01B90122E030E060
:1008100040E050E00E94E00559016A01A6019501FF
:10082000209530954095509594E0220F331F441F3A
:10083000551F9A95D1F760E072E18AE790E00E9437
:10084000E005CA01B9012FEF30E040E050E00E941E
:100850008C05A40193010E94E005C90181509F4FBE
:10086000181619061CF4522E5A9403C0552453949A
:10087000521A60E874E88EE190E0A40193010E94AE
:10088000E0052150304040405040CA01B90122E00B
:1008900030E040E050E00E94E00520953095409522
:1008A000509583E0220F331F441F551F8A95D1F7BF
:1008B00060E072E18AE790E00E94E005CA01B901B8
:1008C0002FEF30E040E050E00E948C05A40193013E
:1008D0000E94E005C90181509F4F181619061CF4AB
:1008E000822F815002C081E0821B851500F5E885CA
:1008F000F98581E090E00A8802C0880F991F0A9468
:10090000E2F7808360E874E88EE190E0A40193014F
:100910000E94E0052150304040405040CA01B901DA
:1009200022E030E040E050E00E94E00504C0E885AD
:10093000F98510829501EC81FD813083EE81FF8184
:100940002083EA85FB85208141E050E0CA010E84C6
:1009500002C0880F991F0A94E2F7282B2083EA85AA
:10096000FB852081CA010F8402C0880F991F0A9459
:10097000E2F7282B2083EA85FB858081088802C066
:10098000440F551F0A94E2F7842B8083DF91CF91A7
:100990001F910F91FF90EF90DF90CF90BF90AF909D
:1009A0009F908F907F906F905F900895FC01A0853D
:1009B000B18521898C9190E0022E02C09595879592
:1009C0000A94E2F780FFF6CF0484F585E02D60837A
:1009D00008958FE493E09093EA038093E90385E61A
:1009E00093E09093EC038093EB0385EC90E090937D
:1009F000EE038093ED0384EC90E09093F0038093FA
:100A0000EF0380EC90E09093F2038093F10381EC8C
:100A100090E09093F4038093F30386EC90E090933E
:100A2000F6038093F50384E08093F70383E08093DB
:100A3000F80387E08093F90385E08093FA0381E06F
:100A40008093FB0308950F931F93CF93DF938C0143
:100A5000EB0109C02196D801ED91FC910190F08144
:100A6000E02DC801099568816623A1F7DF91CF9138
:100A70001F910F910895EF92FF920F931F93CF93C1
:100A8000DF938C017B01EA010CC0D7016D917D01E0
:100A9000D801ED91FC910190F081E02DC8010995FC
:100AA0002197209791F7DF91CF911F910F91FF90A0
:100AB000EF900895DC01ED91FC910190F081E02D23
:100AC00009950895DC01ED91FC910280F381E02D00
:100AD000099508950F931F938C01DC01ED91FC9112
:100AE0000190F081E02D6DE00995D801ED91FC9128
:100AF0000190F081E02DC8016AE009951F910F91E6
:100B000008950F931F938C010E946205C8010E94F3
:100B10006A051F910F910895629FD001739FF001A4
:100B2000829FE00DF11D649FE00DF11D929FF00D7D
:100B3000839FF00D749FF00D659FF00D9927729FB4
:100B4000B00DE11DF91F639FB00DE11DF91FBD013F
:100B5000CF011124089597FB092E07260AD077FDAF
:100B600004D049D006D000201AF4709561957F4FCB
:100B70000895F6F7909581959F4F0895A1E21A2E5A
:100B8000AA1BBB1BFD010DC0AA1FBB1FEE1FFF1F31
:100B9000A217B307E407F50720F0A21BB30BE40B81
:100BA000F50B661F771F881F991F1A9469F76095C8
:100BB0007095809590959B01AC01BD01CF01089582
:100BC00097FB092E05260ED057FD04D0D7DF0AD09B
:100BD000001C38F450954095309521953F4F4F4F6C
:100BE0005F4F0895F6F790958095709561957F4FCA
:100BF0008F4F9F4F0895AA1BBB1B51E107C0AA1F2F
:100C0000BB1FA617B70710F0A61BB70B881F991FAD
:100C10005A95A9F780959095BC01CD010895EE0FE6
:0E0C2000FF1F0590F491E02D0994F894FFCF8A
:100C2E005374617274696E672E2E2E003F0000564B
:100C3E00565656562C41544C41532C312F332C487A
:100C4E004947482C414C5449545544452C42414C3B
:100C5E004C4F4F4E0056565656562C41544C4153FF
:100C6E002C312C484947482C414C54495455444545
:100C7E002C42414C4C4F4F4E0056565656562C4118
:100C8E00544C41532C322F332C525454592C343350
:100C9E00342E3037352C4153434949382C35302CBE
:100CAE003335302C302C312E350056565656562CA8
:100CBE0041544C41532C332F332C5757572E5350EE
:100CCE004143454E4541522E55532F545241434BAD
:100CDE0045522F000700030004002E6A2C733F4C70
:100CEE002F292D6141064211431544094502461430
:100CFE00470B481049044A1E4B0D4C124D074E052A
:100D0E004F0F5016511B520A53085403550C5618C8
:100D1E00570E5819591D5A13313E323C3338343060
:100D2E003520362137233827392F303F3104000440
:100D3E00007C0000000000324800640054004C00AB
:100D4E0040003344004400540054003C00341C0066
:100D5E00100010007C0010003540005C0054005460
:100D6E00003400363C0052004A0048003000374440
:100D7E0000240014000C000400386C005A005400CB
:100D8E005A006C003908004A004A002A0038003028
:100D9E003800640054004C0038004178002C0024C8
:100DAE00002C0078004244007C00540054002800BF
:100DBE004338006C004400440028004444007C008A
:100DCE00440044003800457C005400540044004464
:100DDE00004738006C00440054003400487C00107A
:100DEE0000100010007C0049000044007C0044000C
:100DFE0000004A60004000400040007C004C7C0037
:100E0E0040004000400040004D7C000800100008EB
:100E1E00007C004E7C000400080010007C004F385F
:100E2E00004400440044003800535800540054005D
:100E3E005400240054040004007C000400040055F7
:100E4E007C004000400040007C00567C00200010DA
:100E5E000008000400584400280010002800440038
:100E6E002C8000A00060000000000000000000D6F2
:060E7E000423053B050002
:00000001FF
